{
  "contractName": "BibsStaking",
  "abi": [
    {
      "inputs": [
        {
          "internalType": "contract Dai",
          "name": "_daiAddress",
          "type": "address"
        },
        {
          "internalType": "contract Bibscoin",
          "name": "_bibscoinAddress",
          "type": "address"
        },
        {
          "internalType": "address",
          "name": "_address",
          "type": "address"
        }
      ],
      "stateMutability": "nonpayable",
      "type": "constructor"
    },
    {
      "anonymous": false,
      "inputs": [
        {
          "indexed": true,
          "internalType": "address",
          "name": "previousOwner",
          "type": "address"
        },
        {
          "indexed": true,
          "internalType": "address",
          "name": "newOwner",
          "type": "address"
        }
      ],
      "name": "OwnershipTransferred",
      "type": "event"
    },
    {
      "anonymous": false,
      "inputs": [
        {
          "indexed": false,
          "internalType": "address",
          "name": "user",
          "type": "address"
        },
        {
          "indexed": false,
          "internalType": "uint256",
          "name": "amount",
          "type": "uint256"
        }
      ],
      "name": "RewardIssued",
      "type": "event"
    },
    {
      "anonymous": false,
      "inputs": [
        {
          "indexed": false,
          "internalType": "address",
          "name": "user",
          "type": "address"
        },
        {
          "indexed": false,
          "internalType": "uint256",
          "name": "amount",
          "type": "uint256"
        }
      ],
      "name": "Staked",
      "type": "event"
    },
    {
      "anonymous": false,
      "inputs": [
        {
          "indexed": false,
          "internalType": "address",
          "name": "user",
          "type": "address"
        },
        {
          "indexed": false,
          "internalType": "uint256",
          "name": "amount",
          "type": "uint256"
        }
      ],
      "name": "Unstaked",
      "type": "event"
    },
    {
      "inputs": [],
      "name": "bibscoin",
      "outputs": [
        {
          "internalType": "contract Bibscoin",
          "name": "",
          "type": "address"
        }
      ],
      "stateMutability": "view",
      "type": "function",
      "constant": true
    },
    {
      "inputs": [],
      "name": "dai",
      "outputs": [
        {
          "internalType": "contract Dai",
          "name": "",
          "type": "address"
        }
      ],
      "stateMutability": "view",
      "type": "function",
      "constant": true
    },
    {
      "inputs": [
        {
          "internalType": "address",
          "name": "",
          "type": "address"
        }
      ],
      "name": "isStaking",
      "outputs": [
        {
          "internalType": "bool",
          "name": "",
          "type": "bool"
        }
      ],
      "stateMutability": "view",
      "type": "function",
      "constant": true
    },
    {
      "inputs": [],
      "name": "owner",
      "outputs": [
        {
          "internalType": "address",
          "name": "",
          "type": "address"
        }
      ],
      "stateMutability": "view",
      "type": "function",
      "constant": true
    },
    {
      "inputs": [],
      "name": "renounceOwnership",
      "outputs": [],
      "stateMutability": "nonpayable",
      "type": "function"
    },
    {
      "inputs": [
        {
          "internalType": "address",
          "name": "",
          "type": "address"
        }
      ],
      "name": "stakingBalance",
      "outputs": [
        {
          "internalType": "uint256",
          "name": "",
          "type": "uint256"
        }
      ],
      "stateMutability": "view",
      "type": "function",
      "constant": true
    },
    {
      "inputs": [
        {
          "internalType": "address",
          "name": "",
          "type": "address"
        }
      ],
      "name": "timestamp",
      "outputs": [
        {
          "internalType": "uint256",
          "name": "",
          "type": "uint256"
        }
      ],
      "stateMutability": "view",
      "type": "function",
      "constant": true
    },
    {
      "inputs": [
        {
          "internalType": "address",
          "name": "newOwner",
          "type": "address"
        }
      ],
      "name": "transferOwnership",
      "outputs": [],
      "stateMutability": "nonpayable",
      "type": "function"
    },
    {
      "inputs": [
        {
          "internalType": "uint256",
          "name": "_amount",
          "type": "uint256"
        }
      ],
      "name": "stake",
      "outputs": [],
      "stateMutability": "nonpayable",
      "type": "function"
    },
    {
      "inputs": [],
      "name": "calculateReward",
      "outputs": [
        {
          "internalType": "uint256",
          "name": "",
          "type": "uint256"
        }
      ],
      "stateMutability": "view",
      "type": "function",
      "constant": true
    },
    {
      "inputs": [],
      "name": "getDaiEthPrice",
      "outputs": [
        {
          "internalType": "int256",
          "name": "",
          "type": "int256"
        }
      ],
      "stateMutability": "view",
      "type": "function",
      "constant": true
    },
    {
      "inputs": [],
      "name": "issueReward",
      "outputs": [],
      "stateMutability": "nonpayable",
      "type": "function"
    },
    {
      "inputs": [
        {
          "internalType": "uint256",
          "name": "_amount",
          "type": "uint256"
        }
      ],
      "name": "unstake",
      "outputs": [],
      "stateMutability": "nonpayable",
      "type": "function"
    }
  ],
  "bytecode": "0x60806040523480156200001157600080fd5b5060405162001e6738038062001e678339818101604052810190620000379190620002f5565b620000696200005462000135640100000000026401000000009004565b6200013d640100000000026401000000009004565b82600160006101000a81548173ffffffffffffffffffffffffffffffffffffffff021916908373ffffffffffffffffffffffffffffffffffffffff16021790555081600260006101000a81548173ffffffffffffffffffffffffffffffffffffffff021916908373ffffffffffffffffffffffffffffffffffffffff16021790555080600360006101000a81548173ffffffffffffffffffffffffffffffffffffffff021916908373ffffffffffffffffffffffffffffffffffffffff16021790555050505062000351565b600033905090565b60008060009054906101000a900473ffffffffffffffffffffffffffffffffffffffff169050816000806101000a81548173ffffffffffffffffffffffffffffffffffffffff021916908373ffffffffffffffffffffffffffffffffffffffff1602179055508173ffffffffffffffffffffffffffffffffffffffff168173ffffffffffffffffffffffffffffffffffffffff167f8be0079c531659141344cd1fd0a4f28419497f9722a3daafe3b4186f6b6457e060405160405180910390a35050565b600080fd5b600073ffffffffffffffffffffffffffffffffffffffff82169050919050565b6000620002338262000206565b9050919050565b6000620002478262000226565b9050919050565b62000259816200023a565b81146200026557600080fd5b50565b60008151905062000279816200024e565b92915050565b60006200028c8262000226565b9050919050565b6200029e816200027f565b8114620002aa57600080fd5b50565b600081519050620002be8162000293565b92915050565b620002cf8162000226565b8114620002db57600080fd5b50565b600081519050620002ef81620002c4565b92915050565b60008060006060848603121562000311576200031062000201565b5b6000620003218682870162000268565b93505060206200033486828701620002ad565b92505060406200034786828701620002de565b9150509250925092565b611b0680620003616000396000f3fe608060405234801561001057600080fd5b50600436106100ec576000357c0100000000000000000000000000000000000000000000000000000000900480637302dacf116100a9578063bf3149eb11610083578063bf3149eb1461021d578063f2fde38b1461023b578063f483f33b14610257578063f4b9fa7514610261576100ec565b80637302dacf146101b35780638da5cb5b146101e3578063a694fc3a14610201576100ec565b80632e17de78146100f157806345bc78ab1461010d5780634734571c1461013d5780636f49712b1461015b578063715018a61461018b578063725cedd314610195575b600080fd5b61010b60048036038101906101069190611229565b61027f565b005b610127600480360381019061012291906112b4565b61060e565b60405161013491906112f0565b60405180910390f35b610145610626565b6040516101529190611324565b60405180910390f35b610175600480360381019061017091906112b4565b610700565b604051610182919061135a565b60405180910390f35b610193610720565b005b61019d6107a8565b6040516101aa91906112f0565b60405180910390f35b6101cd60048036038101906101c891906112b4565b6108df565b6040516101da91906112f0565b60405180910390f35b6101eb6108f7565b6040516101f89190611384565b60405180910390f35b61021b60048036038101906102169190611229565b610920565b005b610225610c53565b60405161023291906113fe565b60405180910390f35b610255600480360381019061025091906112b4565b610c79565b005b61025f610d71565b005b6102696110d0565b604051610276919061143a565b60405180910390f35b600081116102c2576040517f08c379a00000000000000000000000000000000000000000000000000000000081526004016102b9906114b2565b60405180910390fd5b600660003373ffffffffffffffffffffffffffffffffffffffff1673ffffffffffffffffffffffffffffffffffffffff16815260200190815260200160002060009054906101000a900460ff1661034e576040517f08c379a00000000000000000000000000000000000000000000000000000000081526004016103459061151e565b60405180910390fd5b80600560003373ffffffffffffffffffffffffffffffffffffffff1673ffffffffffffffffffffffffffffffffffffffff1681526020019081526020016000205410156103d0576040517f08c379a00000000000000000000000000000000000000000000000000000000081526004016103c79061158a565b60405180910390fd5b61042281600560003373ffffffffffffffffffffffffffffffffffffffff1673ffffffffffffffffffffffffffffffffffffffff168152602001908152602001600020546110f690919063ffffffff16565b600560003373ffffffffffffffffffffffffffffffffffffffff1673ffffffffffffffffffffffffffffffffffffffff168152602001908152602001600020819055506000600560003373ffffffffffffffffffffffffffffffffffffffff1673ffffffffffffffffffffffffffffffffffffffff168152602001908152602001600020541415610506576000600660003373ffffffffffffffffffffffffffffffffffffffff1673ffffffffffffffffffffffffffffffffffffffff16815260200190815260200160002060006101000a81548160ff0219169083151502179055505b600160009054906101000a900473ffffffffffffffffffffffffffffffffffffffff1673ffffffffffffffffffffffffffffffffffffffff1663a9059cbb33836040518363ffffffff167c010000000000000000000000000000000000000000000000000000000002815260040161057f9291906115aa565b602060405180830381600087803b15801561059957600080fd5b505af11580156105ad573d6000803e3d6000fd5b505050506040513d601f19601f820116820180604052508101906105d191906115ff565b507f0f5bb82176feb1b5e747e28471aa92156a04d9f3ab9f45f28e2d704232b93f7533826040516106039291906115aa565b60405180910390a150565b60056020528060005260406000206000915090505481565b600080600080600080600360009054906101000a900473ffffffffffffffffffffffffffffffffffffffff1673ffffffffffffffffffffffffffffffffffffffff1663feaf968c6040518163ffffffff167c010000000000000000000000000000000000000000000000000000000002815260040160a06040518083038186803b1580156106b357600080fd5b505afa1580156106c7573d6000803e3d6000fd5b505050506040513d601f19601f820116820180604052508101906106eb91906116af565b94509450945094509450839550505050505090565b60066020528060005260406000206000915054906101000a900460ff1681565b61072861110c565b73ffffffffffffffffffffffffffffffffffffffff166107466108f7565b73ffffffffffffffffffffffffffffffffffffffff161461079c576040517f08c379a000000000000000000000000000000000000000000000000000000000815260040161079390611776565b60405180910390fd5b6107a66000611114565b565b600080600560003373ffffffffffffffffffffffffffffffffffffffff1673ffffffffffffffffffffffffffffffffffffffff1681526020019081526020016000205414156107fa57600090506108dc565b6000610804610626565b905060006001600760003373ffffffffffffffffffffffffffffffffffffffff1673ffffffffffffffffffffffffffffffffffffffff168152602001908152602001600020544261085591906117c5565b61085f9190611828565b9050806103e8670de0b6b3a764000084600560003373ffffffffffffffffffffffffffffffffffffffff1673ffffffffffffffffffffffffffffffffffffffff168152602001908152602001600020546108b99190611859565b6108c39190611828565b6108cd9190611828565b6108d79190611859565b925050505b90565b60076020528060005260406000206000915090505481565b60008060009054906101000a900473ffffffffffffffffffffffffffffffffffffffff16905090565b60008111610963576040517f08c379a000000000000000000000000000000000000000000000000000000000815260040161095a906114b2565b60405180910390fd5b600160009054906101000a900473ffffffffffffffffffffffffffffffffffffffff1673ffffffffffffffffffffffffffffffffffffffff166323b872dd3330846040518463ffffffff167c01000000000000000000000000000000000000000000000000000000000281526004016109de939291906118b3565b602060405180830381600087803b1580156109f857600080fd5b505af1158015610a0c573d6000803e3d6000fd5b505050506040513d601f19601f82011682018060405250810190610a3091906115ff565b50610a8381600560003373ffffffffffffffffffffffffffffffffffffffff1673ffffffffffffffffffffffffffffffffffffffff168152602001908152602001600020546111d890919063ffffffff16565b600560003373ffffffffffffffffffffffffffffffffffffffff1673ffffffffffffffffffffffffffffffffffffffff16815260200190815260200160002081905550600660003373ffffffffffffffffffffffffffffffffffffffff1673ffffffffffffffffffffffffffffffffffffffff16815260200190815260200160002060009054906101000a900460ff16610c17576001600660003373ffffffffffffffffffffffffffffffffffffffff1673ffffffffffffffffffffffffffffffffffffffff16815260200190815260200160002060006101000a81548160ff02191690831515021790555042600760003373ffffffffffffffffffffffffffffffffffffffff1673ffffffffffffffffffffffffffffffffffffffff168152602001908152602001600020819055506004339080600181540180825580915050600190039060005260206000200160009091909190916101000a81548173ffffffffffffffffffffffffffffffffffffffff021916908373ffffffffffffffffffffffffffffffffffffffff1602179055505b7f9e71bc8eea02a63969f509818f2dafb9254532904319f9dbda79b67bd34a5f3d3382604051610c489291906115aa565b60405180910390a150565b600260009054906101000a900473ffffffffffffffffffffffffffffffffffffffff1681565b610c8161110c565b73ffffffffffffffffffffffffffffffffffffffff16610c9f6108f7565b73ffffffffffffffffffffffffffffffffffffffff1614610cf5576040517f08c379a0000000000000000000000000000000000000000000000000000000008152600401610cec90611776565b60405180910390fd5b600073ffffffffffffffffffffffffffffffffffffffff168173ffffffffffffffffffffffffffffffffffffffff161415610d65576040517f08c379a0000000000000000000000000000000000000000000000000000000008152600401610d5c9061195c565b60405180910390fd5b610d6e81611114565b50565b600660003373ffffffffffffffffffffffffffffffffffffffff1673ffffffffffffffffffffffffffffffffffffffff16815260200190815260200160002060009054906101000a900460ff16610dfd576040517f08c379a0000000000000000000000000000000000000000000000000000000008152600401610df49061151e565b60405180910390fd5b6000610e076107a8565b905060008111610e4c576040517f08c379a0000000000000000000000000000000000000000000000000000000008152600401610e43906119c8565b60405180910390fd5b6001600760003373ffffffffffffffffffffffffffffffffffffffff1673ffffffffffffffffffffffffffffffffffffffff1681526020019081526020016000205442610e9991906117c5565b11610ed9576040517f08c379a0000000000000000000000000000000000000000000000000000000008152600401610ed090611a5a565b60405180910390fd5b42600760003373ffffffffffffffffffffffffffffffffffffffff1673ffffffffffffffffffffffffffffffffffffffff16815260200190815260200160002081905550600260009054906101000a900473ffffffffffffffffffffffffffffffffffffffff1673ffffffffffffffffffffffffffffffffffffffff166340c10f1930836040518363ffffffff167c0100000000000000000000000000000000000000000000000000000000028152600401610f969291906115aa565b600060405180830381600087803b158015610fb057600080fd5b505af1158015610fc4573d6000803e3d6000fd5b50505050600260009054906101000a900473ffffffffffffffffffffffffffffffffffffffff1673ffffffffffffffffffffffffffffffffffffffff1663a9059cbb33836040518363ffffffff167c01000000000000000000000000000000000000000000000000000000000281526004016110419291906115aa565b602060405180830381600087803b15801561105b57600080fd5b505af115801561106f573d6000803e3d6000fd5b505050506040513d601f19601f8201168201806040525081019061109391906115ff565b507ff9b6ec770c96c3a6f9225bf3a8463a8ad03e884448af07b4ecd4d19d628946ee33826040516110c59291906115aa565b60405180910390a150565b600160009054906101000a900473ffffffffffffffffffffffffffffffffffffffff1681565b6000818361110491906117c5565b905092915050565b600033905090565b60008060009054906101000a900473ffffffffffffffffffffffffffffffffffffffff169050816000806101000a81548173ffffffffffffffffffffffffffffffffffffffff021916908373ffffffffffffffffffffffffffffffffffffffff1602179055508173ffffffffffffffffffffffffffffffffffffffff168173ffffffffffffffffffffffffffffffffffffffff167f8be0079c531659141344cd1fd0a4f28419497f9722a3daafe3b4186f6b6457e060405160405180910390a35050565b600081836111e69190611a7a565b905092915050565b600080fd5b6000819050919050565b611206816111f3565b811461121157600080fd5b50565b600081359050611223816111fd565b92915050565b60006020828403121561123f5761123e6111ee565b5b600061124d84828501611214565b91505092915050565b600073ffffffffffffffffffffffffffffffffffffffff82169050919050565b600061128182611256565b9050919050565b61129181611276565b811461129c57600080fd5b50565b6000813590506112ae81611288565b92915050565b6000602082840312156112ca576112c96111ee565b5b60006112d88482850161129f565b91505092915050565b6112ea816111f3565b82525050565b600060208201905061130560008301846112e1565b92915050565b6000819050919050565b61131e8161130b565b82525050565b60006020820190506113396000830184611315565b92915050565b60008115159050919050565b6113548161133f565b82525050565b600060208201905061136f600083018461134b565b92915050565b61137e81611276565b82525050565b60006020820190506113996000830184611375565b92915050565b6000819050919050565b60006113c46113bf6113ba84611256565b61139f565b611256565b9050919050565b60006113d6826113a9565b9050919050565b60006113e8826113cb565b9050919050565b6113f8816113dd565b82525050565b600060208201905061141360008301846113ef565b92915050565b6000611424826113cb565b9050919050565b61143481611419565b82525050565b600060208201905061144f600083018461142b565b92915050565b600082825260208201905092915050565b7f54686520616d6f756e74206d75737420626520706f7369746976650000000000600082015250565b600061149c601b83611455565b91506114a782611466565b602082019050919050565b600060208201905081810360008301526114cb8161148f565b9050919050565b7f596f7520646f6e2774206f776e20746f6b656e207374616b6564000000000000600082015250565b6000611508601a83611455565b9150611513826114d2565b602082019050919050565b60006020820190508181036000830152611537816114fb565b9050919050565b7f596f7520646f6e2774206f776e206173206d616e7920746f6b656e7300000000600082015250565b6000611574601c83611455565b915061157f8261153e565b602082019050919050565b600060208201905081810360008301526115a381611567565b9050919050565b60006040820190506115bf6000830185611375565b6115cc60208301846112e1565b9392505050565b6115dc8161133f565b81146115e757600080fd5b50565b6000815190506115f9816115d3565b92915050565b600060208284031215611615576116146111ee565b5b6000611623848285016115ea565b91505092915050565b600069ffffffffffffffffffff82169050919050565b61164b8161162c565b811461165657600080fd5b50565b60008151905061166881611642565b92915050565b6116778161130b565b811461168257600080fd5b50565b6000815190506116948161166e565b92915050565b6000815190506116a9816111fd565b92915050565b600080600080600060a086880312156116cb576116ca6111ee565b5b60006116d988828901611659565b95505060206116ea88828901611685565b94505060406116fb8882890161169a565b935050606061170c8882890161169a565b925050608061171d88828901611659565b9150509295509295909350565b7f4f776e61626c653a2063616c6c6572206973206e6f7420746865206f776e6572600082015250565b6000611760602083611455565b915061176b8261172a565b602082019050919050565b6000602082019050818103600083015261178f81611753565b9050919050565b7f4e487b7100000000000000000000000000000000000000000000000000000000600052601160045260246000fd5b60006117d0826111f3565b91506117db836111f3565b9250828210156117ee576117ed611796565b5b828203905092915050565b7f4e487b7100000000000000000000000000000000000000000000000000000000600052601260045260246000fd5b6000611833826111f3565b915061183e836111f3565b92508261184e5761184d6117f9565b5b828204905092915050565b6000611864826111f3565b915061186f836111f3565b9250817fffffffffffffffffffffffffffffffffffffffffffffffffffffffffffffffff04831182151516156118a8576118a7611796565b5b828202905092915050565b60006060820190506118c86000830186611375565b6118d56020830185611375565b6118e260408301846112e1565b949350505050565b7f4f776e61626c653a206e6577206f776e657220697320746865207a65726f206160008201527f6464726573730000000000000000000000000000000000000000000000000000602082015250565b6000611946602683611455565b9150611951826118ea565b604082019050919050565b6000602082019050818103600083015261197581611939565b9050919050565b7f4e6f2052657761726420617661696c61626c6520210000000000000000000000600082015250565b60006119b2601583611455565b91506119bd8261197c565b602082019050919050565b600060208201905081810360008301526119e1816119a5565b9050919050565b7f57616974206174206c656173742031207365636f6e6420746f20636c61696d2060008201527f616761696e207265776172647300000000000000000000000000000000000000602082015250565b6000611a44602d83611455565b9150611a4f826119e8565b604082019050919050565b60006020820190508181036000830152611a7381611a37565b9050919050565b6000611a85826111f3565b9150611a90836111f3565b9250827fffffffffffffffffffffffffffffffffffffffffffffffffffffffffffffffff03821115611ac557611ac4611796565b5b82820190509291505056fea264697066735822122085334c2b959f1c7f96d577c795b8c5501a9322ef6fe62e52678342271abe8c4364736f6c63430008090033",
  "immutableReferences": {},
  "source": "// SPDX-License-Identifier: MIT\r\npragma solidity 0.8.9;\r\nimport \"@openzeppelin/contracts/token/ERC20/IERC20.sol\";\r\nimport \"@openzeppelin/contracts/access/Ownable.sol\";\r\nimport \"@openzeppelin/contracts/utils/math/SafeMath.sol\";\r\nimport \"@chainlink/contracts/src/v0.8/interfaces/AggregatorV3Interface.sol\";\r\n\r\nimport \"./Bibscoin.sol\";\r\nimport \"./Dai.sol\";\r\n\r\ncontract BibsStaking is Ownable {\r\n    using SafeMath for uint256;\r\n    Dai public dai;\r\n    Bibscoin public bibscoin;\r\n\r\n    AggregatorV3Interface internal priceFeed;\r\n\r\n    address[] stakers;\r\n    mapping(address => uint256) public stakingBalance;\r\n    // INFOS IMPORTANTES ???\r\n    mapping(address => bool) public isStaking;\r\n    mapping(address => uint256) public timestamp; \r\n\r\n    // Crer un struct comme voting ?\r\n    event Staked(address user, uint256 amount);\r\n    event Unstaked(address user, uint256 amount);\r\n    event RewardIssued(address user, uint256 amount);\r\n\r\n    /**\r\n     * Network: Kovan\r\n     * Aggregator: DAI/ETH\r\n     * Address: 0x22B58f1EbEDfCA50feF632bD73368b2FdA96D541\r\n     */\r\n    constructor(Dai _daiAddress, Bibscoin _bibscoinAddress, address _address) {\r\n        // Injecter l'address du token Bibscoin et Dai  utiliser\r\n        dai = _daiAddress;\r\n        bibscoin = _bibscoinAddress;\r\n        priceFeed = AggregatorV3Interface(_address);\r\n    }\r\n\r\n    // stake tokens\r\n    function stake(uint256 _amount) external {\r\n        require(_amount > 0, \"The amount must be positive\");\r\n        dai.transferFrom(msg.sender, address(this), _amount);\r\n        stakingBalance[msg.sender] = stakingBalance[msg.sender].add(_amount);\r\n        if (!isStaking[msg.sender]) {\r\n            isStaking[msg.sender] = true;\r\n            timestamp[msg.sender] = block.timestamp;\r\n            stakers.push(msg.sender);\r\n        }\r\n        emit Staked(msg.sender, _amount);\r\n    }\r\n\r\n    function calculateReward() public view returns (uint256) {\r\n        if (stakingBalance[msg.sender] == 0) {\r\n            return 0;\r\n        }\r\n        uint256 daiEthPrice = uint256(getDaiEthPrice());\r\n        uint256 stakingPeriod = (block.timestamp - timestamp[msg.sender]) / (1 seconds);\r\n        return (((stakingBalance[msg.sender] * daiEthPrice) / 1e18) / 1000) * stakingPeriod;\r\n    }\r\n\r\n    function getDaiEthPrice() public view returns (int) {\r\n        (\r\n            uint80 roundID, \r\n            int price,\r\n            uint startedAt,\r\n            uint timeStamp,\r\n            uint80 answeredInRound\r\n        ) = priceFeed.latestRoundData();\r\n        return price;\r\n    }\r\n\r\n    // Issuing tokens\r\n    function issueReward() public {\r\n        require(isStaking[msg.sender], \"You don't own token staked\");\r\n        uint256 reward = calculateReward();\r\n        require(reward > 0, \"No Reward available !\");\r\n        require((block.timestamp - timestamp[msg.sender]) > 1 seconds, \"Wait at least 1 second to claim again rewards\");\r\n\r\n        timestamp[msg.sender] = block.timestamp;\r\n        bibscoin.mint(address(this), reward);\r\n        bibscoin.transfer(msg.sender, reward);\r\n        emit RewardIssued(msg.sender, reward);\r\n    }\r\n\r\n    // unstake tokens, SECURITE\r\n    function unstake(uint256 _amount) external {\r\n        require(_amount > 0, \"The amount must be positive\");\r\n        require(isStaking[msg.sender], \"You don't own token staked\");\r\n        require(stakingBalance[msg.sender] >= _amount, \"You don't own as many tokens\");\r\n        stakingBalance[msg.sender] = stakingBalance[msg.sender].sub(_amount);\r\n        if (stakingBalance[msg.sender] == 0) {\r\n            isStaking[msg.sender] = false;\r\n        }\r\n        dai.transfer(msg.sender, _amount);\r\n        emit Unstaked(msg.sender, _amount);\r\n    }\r\n}\r\n",
  "sourcePath": "D:\\TAF\\Alyra\\Cours\\DApp\\StakingDAPP\\contracts\\BibsStaking.sol",
  "compiler": {
    "name": "solc",
    "version": "0.8.9+commit.e5eed63a.Emscripten.clang"
  },
  "schemaVersion": "3.4.3",
  "updatedAt": "2021-10-03T14:56:52.244Z",
  "networkType": "ethereum",
  "devdoc": {
    "kind": "dev",
    "methods": {
      "owner()": {
        "details": "Returns the address of the current owner."
      },
      "renounceOwnership()": {
        "details": "Leaves the contract without owner. It will not be possible to call `onlyOwner` functions anymore. Can only be called by the current owner. NOTE: Renouncing ownership will leave the contract without an owner, thereby removing any functionality that is only available to the owner."
      },
      "transferOwnership(address)": {
        "details": "Transfers ownership of the contract to a new account (`newOwner`). Can only be called by the current owner."
      }
    },
    "version": 1
  },
  "userdoc": {
    "kind": "user",
    "methods": {
      "constructor": {
        "notice": "Network: Kovan Aggregator: DAI/ETH Address: 0x22B58f1EbEDfCA50feF632bD73368b2FdA96D541"
      }
    },
    "version": 1
  }
}