{
  "contractName": "BibsStaking",
  "abi": [
    {
      "inputs": [
        {
          "internalType": "contract Dai",
          "name": "_daiAddress",
          "type": "address"
        },
        {
          "internalType": "contract Bibscoin",
          "name": "_bibscoinAddress",
          "type": "address"
        },
        {
          "internalType": "address",
          "name": "_aggregatorAddress",
          "type": "address"
        }
      ],
      "stateMutability": "nonpayable",
      "type": "constructor"
    },
    {
      "anonymous": false,
      "inputs": [
        {
          "indexed": false,
          "internalType": "address",
          "name": "user",
          "type": "address"
        },
        {
          "indexed": false,
          "internalType": "uint256",
          "name": "amount",
          "type": "uint256"
        }
      ],
      "name": "RewardIssued",
      "type": "event"
    },
    {
      "anonymous": false,
      "inputs": [
        {
          "indexed": false,
          "internalType": "address",
          "name": "user",
          "type": "address"
        },
        {
          "indexed": false,
          "internalType": "uint256",
          "name": "amount",
          "type": "uint256"
        }
      ],
      "name": "Staked",
      "type": "event"
    },
    {
      "anonymous": false,
      "inputs": [
        {
          "indexed": false,
          "internalType": "address",
          "name": "user",
          "type": "address"
        },
        {
          "indexed": false,
          "internalType": "uint256",
          "name": "amount",
          "type": "uint256"
        }
      ],
      "name": "Unstaked",
      "type": "event"
    },
    {
      "inputs": [],
      "name": "bibscoin",
      "outputs": [
        {
          "internalType": "contract Bibscoin",
          "name": "",
          "type": "address"
        }
      ],
      "stateMutability": "view",
      "type": "function",
      "constant": true
    },
    {
      "inputs": [],
      "name": "dai",
      "outputs": [
        {
          "internalType": "contract Dai",
          "name": "",
          "type": "address"
        }
      ],
      "stateMutability": "view",
      "type": "function",
      "constant": true
    },
    {
      "inputs": [
        {
          "internalType": "address",
          "name": "",
          "type": "address"
        }
      ],
      "name": "isStaking",
      "outputs": [
        {
          "internalType": "bool",
          "name": "",
          "type": "bool"
        }
      ],
      "stateMutability": "view",
      "type": "function",
      "constant": true
    },
    {
      "inputs": [
        {
          "internalType": "address",
          "name": "",
          "type": "address"
        }
      ],
      "name": "stakingBalance",
      "outputs": [
        {
          "internalType": "uint256",
          "name": "",
          "type": "uint256"
        }
      ],
      "stateMutability": "view",
      "type": "function",
      "constant": true
    },
    {
      "inputs": [
        {
          "internalType": "address",
          "name": "",
          "type": "address"
        }
      ],
      "name": "timestamp",
      "outputs": [
        {
          "internalType": "uint256",
          "name": "",
          "type": "uint256"
        }
      ],
      "stateMutability": "view",
      "type": "function",
      "constant": true
    },
    {
      "inputs": [],
      "name": "getDaiEthPrice",
      "outputs": [
        {
          "internalType": "int256",
          "name": "",
          "type": "int256"
        }
      ],
      "stateMutability": "view",
      "type": "function",
      "constant": true
    },
    {
      "inputs": [
        {
          "internalType": "uint256",
          "name": "_amount",
          "type": "uint256"
        }
      ],
      "name": "stake",
      "outputs": [],
      "stateMutability": "nonpayable",
      "type": "function"
    },
    {
      "inputs": [
        {
          "internalType": "uint256",
          "name": "_amount",
          "type": "uint256"
        }
      ],
      "name": "unstake",
      "outputs": [],
      "stateMutability": "nonpayable",
      "type": "function"
    }
  ],
  "bytecode": "0x60806040523480156200001157600080fd5b5060405162001bcc38038062001bcc8339818101604052810190620000379190620001f6565b826000806101000a81548173ffffffffffffffffffffffffffffffffffffffff021916908373ffffffffffffffffffffffffffffffffffffffff16021790555081600160006101000a81548173ffffffffffffffffffffffffffffffffffffffff021916908373ffffffffffffffffffffffffffffffffffffffff16021790555080600260006101000a81548173ffffffffffffffffffffffffffffffffffffffff021916908373ffffffffffffffffffffffffffffffffffffffff16021790555050505062000252565b600080fd5b600073ffffffffffffffffffffffffffffffffffffffff82169050919050565b6000620001348262000107565b9050919050565b6000620001488262000127565b9050919050565b6200015a816200013b565b81146200016657600080fd5b50565b6000815190506200017a816200014f565b92915050565b60006200018d8262000127565b9050919050565b6200019f8162000180565b8114620001ab57600080fd5b50565b600081519050620001bf8162000194565b92915050565b620001d08162000127565b8114620001dc57600080fd5b50565b600081519050620001f081620001c5565b92915050565b60008060006060848603121562000212576200021162000102565b5b6000620002228682870162000169565b93505060206200023586828701620001ae565b92505060406200024886828701620001df565b9150509250925092565b61196a80620002626000396000f3fe608060405234801561001057600080fd5b50600436106100a5576000357c0100000000000000000000000000000000000000000000000000000000900480637302dacf116100785780637302dacf14610144578063a694fc3a14610174578063bf3149eb14610190578063f4b9fa75146101ae576100a5565b80632e17de78146100aa57806345bc78ab146100c65780634734571c146100f65780636f49712b14610114575b600080fd5b6100c460048036038101906100bf91906110f2565b6101cc565b005b6100e060048036038101906100db919061117d565b610528565b6040516100ed91906111b9565b60405180910390f35b6100fe610540565b60405161010b91906111ed565b60405180910390f35b61012e6004803603810190610129919061117d565b61061a565b60405161013b9190611223565b60405180910390f35b61015e6004803603810190610159919061117d565b61063a565b60405161016b91906111b9565b60405180910390f35b61018e600480360381019061018991906110f2565b610652565b005b610198610c37565b6040516101a5919061129d565b60405180910390f35b6101b6610c5d565b6040516101c391906112d9565b60405180910390f35b600560003373ffffffffffffffffffffffffffffffffffffffff1673ffffffffffffffffffffffffffffffffffffffff16815260200190815260200160002060009054906101000a900460ff16610258576040517f08c379a000000000000000000000000000000000000000000000000000000000815260040161024f90611351565b60405180910390fd5b600460003373ffffffffffffffffffffffffffffffffffffffff1673ffffffffffffffffffffffffffffffffffffffff168152602001908152602001600020548111156102da576040517f08c379a00000000000000000000000000000000000000000000000000000000081526004016102d1906113bd565b60405180910390fd5b6102e2610c81565b600081111561044b5761033d81600460003373ffffffffffffffffffffffffffffffffffffffff1673ffffffffffffffffffffffffffffffffffffffff16815260200190815260200160002054610f5490919063ffffffff16565b600460003373ffffffffffffffffffffffffffffffffffffffff1673ffffffffffffffffffffffffffffffffffffffff1681526020019081526020016000208190555060008054906101000a900473ffffffffffffffffffffffffffffffffffffffff1673ffffffffffffffffffffffffffffffffffffffff1663a9059cbb33836040518363ffffffff167c01000000000000000000000000000000000000000000000000000000000281526004016103f79291906113ec565b602060405180830381600087803b15801561041157600080fd5b505af1158015610425573d6000803e3d6000fd5b505050506040513d601f19601f820116820180604052508101906104499190611441565b505b6000600460003373ffffffffffffffffffffffffffffffffffffffff1673ffffffffffffffffffffffffffffffffffffffff1681526020019081526020016000205414156104ec576000600560003373ffffffffffffffffffffffffffffffffffffffff1673ffffffffffffffffffffffffffffffffffffffff16815260200190815260200160002060006101000a81548160ff0219169083151502179055505b7f0f5bb82176feb1b5e747e28471aa92156a04d9f3ab9f45f28e2d704232b93f75338260405161051d9291906113ec565b60405180910390a150565b60046020528060005260406000206000915090505481565b600080600080600080600260009054906101000a900473ffffffffffffffffffffffffffffffffffffffff1673ffffffffffffffffffffffffffffffffffffffff1663feaf968c6040518163ffffffff167c010000000000000000000000000000000000000000000000000000000002815260040160a06040518083038186803b1580156105cd57600080fd5b505afa1580156105e1573d6000803e3d6000fd5b505050506040513d601f19601f8201168201806040525081019061060591906114f1565b94509450945094509450839550505050505090565b60056020528060005260406000206000915054906101000a900460ff1681565b60066020528060005260406000206000915090505481565b60008111610695576040517f08c379a000000000000000000000000000000000000000000000000000000000815260040161068c906115b8565b60405180910390fd5b8060008054906101000a900473ffffffffffffffffffffffffffffffffffffffff1673ffffffffffffffffffffffffffffffffffffffff166370a08231336040518263ffffffff167c010000000000000000000000000000000000000000000000000000000002815260040161070b91906115d8565b60206040518083038186803b15801561072357600080fd5b505afa158015610737573d6000803e3d6000fd5b505050506040513d601f19601f8201168201806040525081019061075b91906115f3565b101580156108fc575060008054906101000a900473ffffffffffffffffffffffffffffffffffffffff1673ffffffffffffffffffffffffffffffffffffffff166370a08231306040518263ffffffff167c01000000000000000000000000000000000000000000000000000000000281526004016107d991906115d8565b60206040518083038186803b1580156107f157600080fd5b505afa158015610805573d6000803e3d6000fd5b505050506040513d601f19601f8201168201806040525081019061082991906115f3565b8160008054906101000a900473ffffffffffffffffffffffffffffffffffffffff1673ffffffffffffffffffffffffffffffffffffffff166370a08231306040518263ffffffff167c010000000000000000000000000000000000000000000000000000000002815260040161089f91906115d8565b60206040518083038186803b1580156108b757600080fd5b505afa1580156108cb573d6000803e3d6000fd5b505050506040513d601f19601f820116820180604052508101906108ef91906115f3565b6108f9919061164f565b10155b61093b576040517f08c379a0000000000000000000000000000000000000000000000000000000008152600401610932906116f1565b60405180910390fd5b600560003373ffffffffffffffffffffffffffffffffffffffff1673ffffffffffffffffffffffffffffffffffffffff16815260200190815260200160002060009054906101000a900460ff161561099a57610995610c81565b610a9a565b6001600560003373ffffffffffffffffffffffffffffffffffffffff1673ffffffffffffffffffffffffffffffffffffffff16815260200190815260200160002060006101000a81548160ff02191690831515021790555042600660003373ffffffffffffffffffffffffffffffffffffffff1673ffffffffffffffffffffffffffffffffffffffff168152602001908152602001600020819055506003339080600181540180825580915050600190039060005260206000200160009091909190916101000a81548173ffffffffffffffffffffffffffffffffffffffff021916908373ffffffffffffffffffffffffffffffffffffffff1602179055505b610aec81600460003373ffffffffffffffffffffffffffffffffffffffff1673ffffffffffffffffffffffffffffffffffffffff16815260200190815260200160002054610f6a90919063ffffffff16565b600460003373ffffffffffffffffffffffffffffffffffffffff1673ffffffffffffffffffffffffffffffffffffffff1681526020019081526020016000208190555060008054906101000a900473ffffffffffffffffffffffffffffffffffffffff1673ffffffffffffffffffffffffffffffffffffffff166323b872dd3330846040518463ffffffff167c0100000000000000000000000000000000000000000000000000000000028152600401610ba893929190611711565b602060405180830381600087803b158015610bc257600080fd5b505af1158015610bd6573d6000803e3d6000fd5b505050506040513d601f19601f82011682018060405250810190610bfa9190611441565b507f9e71bc8eea02a63969f509818f2dafb9254532904319f9dbda79b67bd34a5f3d3382604051610c2c9291906113ec565b60405180910390a150565b600160009054906101000a900473ffffffffffffffffffffffffffffffffffffffff1681565b60008054906101000a900473ffffffffffffffffffffffffffffffffffffffff1681565b6000610c8b610f80565b905060008111610cd0576040517f08c379a0000000000000000000000000000000000000000000000000000000008152600401610cc790611794565b60405180910390fd5b6001600660003373ffffffffffffffffffffffffffffffffffffffff1673ffffffffffffffffffffffffffffffffffffffff1681526020019081526020016000205442610d1d91906117b4565b11610d5d576040517f08c379a0000000000000000000000000000000000000000000000000000000008152600401610d549061185a565b60405180910390fd5b42600660003373ffffffffffffffffffffffffffffffffffffffff1673ffffffffffffffffffffffffffffffffffffffff16815260200190815260200160002081905550600160009054906101000a900473ffffffffffffffffffffffffffffffffffffffff1673ffffffffffffffffffffffffffffffffffffffff166340c10f1930836040518363ffffffff167c0100000000000000000000000000000000000000000000000000000000028152600401610e1a9291906113ec565b600060405180830381600087803b158015610e3457600080fd5b505af1158015610e48573d6000803e3d6000fd5b50505050600160009054906101000a900473ffffffffffffffffffffffffffffffffffffffff1673ffffffffffffffffffffffffffffffffffffffff1663a9059cbb33836040518363ffffffff167c0100000000000000000000000000000000000000000000000000000000028152600401610ec59291906113ec565b602060405180830381600087803b158015610edf57600080fd5b505af1158015610ef3573d6000803e3d6000fd5b505050506040513d601f19601f82011682018060405250810190610f179190611441565b507ff9b6ec770c96c3a6f9225bf3a8463a8ad03e884448af07b4ecd4d19d628946ee3382604051610f499291906113ec565b60405180910390a150565b60008183610f6291906117b4565b905092915050565b60008183610f78919061164f565b905092915050565b600080600460003373ffffffffffffffffffffffffffffffffffffffff1673ffffffffffffffffffffffffffffffffffffffff168152602001908152602001600020541415610fd257600090506110b4565b6000610fdc610540565b905060006001600660003373ffffffffffffffffffffffffffffffffffffffff1673ffffffffffffffffffffffffffffffffffffffff168152602001908152602001600020544261102d91906117b4565b61103791906118a9565b9050806103e8670de0b6b3a764000084600460003373ffffffffffffffffffffffffffffffffffffffff1673ffffffffffffffffffffffffffffffffffffffff1681526020019081526020016000205461109191906118da565b61109b91906118a9565b6110a591906118a9565b6110af91906118da565b925050505b90565b600080fd5b6000819050919050565b6110cf816110bc565b81146110da57600080fd5b50565b6000813590506110ec816110c6565b92915050565b600060208284031215611108576111076110b7565b5b6000611116848285016110dd565b91505092915050565b600073ffffffffffffffffffffffffffffffffffffffff82169050919050565b600061114a8261111f565b9050919050565b61115a8161113f565b811461116557600080fd5b50565b60008135905061117781611151565b92915050565b600060208284031215611193576111926110b7565b5b60006111a184828501611168565b91505092915050565b6111b3816110bc565b82525050565b60006020820190506111ce60008301846111aa565b92915050565b6000819050919050565b6111e7816111d4565b82525050565b600060208201905061120260008301846111de565b92915050565b60008115159050919050565b61121d81611208565b82525050565b60006020820190506112386000830184611214565b92915050565b6000819050919050565b600061126361125e6112598461111f565b61123e565b61111f565b9050919050565b600061127582611248565b9050919050565b60006112878261126a565b9050919050565b6112978161127c565b82525050565b60006020820190506112b2600083018461128e565b92915050565b60006112c38261126a565b9050919050565b6112d3816112b8565b82525050565b60006020820190506112ee60008301846112ca565b92915050565b600082825260208201905092915050565b7f596f7520646f6e2774206f776e20746f6b656e207374616b6564000000000000600082015250565b600061133b601a836112f4565b915061134682611305565b602082019050919050565b6000602082019050818103600083015261136a8161132e565b9050919050565b7f496e73756666696369656e74207374616b656420616d6f756e74000000000000600082015250565b60006113a7601a836112f4565b91506113b282611371565b602082019050919050565b600060208201905081810360008301526113d68161139a565b9050919050565b6113e68161113f565b82525050565b600060408201905061140160008301856113dd565b61140e60208301846111aa565b9392505050565b61141e81611208565b811461142957600080fd5b50565b60008151905061143b81611415565b92915050565b600060208284031215611457576114566110b7565b5b60006114658482850161142c565b91505092915050565b600069ffffffffffffffffffff82169050919050565b61148d8161146e565b811461149857600080fd5b50565b6000815190506114aa81611484565b92915050565b6114b9816111d4565b81146114c457600080fd5b50565b6000815190506114d6816114b0565b92915050565b6000815190506114eb816110c6565b92915050565b600080600080600060a0868803121561150d5761150c6110b7565b5b600061151b8882890161149b565b955050602061152c888289016114c7565b945050604061153d888289016114dc565b935050606061154e888289016114dc565b925050608061155f8882890161149b565b9150509295509295909350565b7f54686520616d6f756e74206d75737420626520706f7369746976650000000000600082015250565b60006115a2601b836112f4565b91506115ad8261156c565b602082019050919050565b600060208201905081810360008301526115d181611595565b9050919050565b60006020820190506115ed60008301846113dd565b92915050565b600060208284031215611609576116086110b7565b5b6000611617848285016114dc565b91505092915050565b7f4e487b7100000000000000000000000000000000000000000000000000000000600052601160045260246000fd5b600061165a826110bc565b9150611665836110bc565b9250827fffffffffffffffffffffffffffffffffffffffffffffffffffffffffffffffff0382111561169a57611699611620565b5b828201905092915050565b7f496e73756666696369656e742062616c616e6365000000000000000000000000600082015250565b60006116db6014836112f4565b91506116e6826116a5565b602082019050919050565b6000602082019050818103600083015261170a816116ce565b9050919050565b600060608201905061172660008301866113dd565b61173360208301856113dd565b61174060408301846111aa565b949350505050565b7f4e6f2052657761726420617661696c61626c6520210000000000000000000000600082015250565b600061177e6015836112f4565b915061178982611748565b602082019050919050565b600060208201905081810360008301526117ad81611771565b9050919050565b60006117bf826110bc565b91506117ca836110bc565b9250828210156117dd576117dc611620565b5b828203905092915050565b7f57616974206174206c656173742031207365636f6e6420746f20636c61696d2060008201527f616761696e207265776172647300000000000000000000000000000000000000602082015250565b6000611844602d836112f4565b915061184f826117e8565b604082019050919050565b6000602082019050818103600083015261187381611837565b9050919050565b7f4e487b7100000000000000000000000000000000000000000000000000000000600052601260045260246000fd5b60006118b4826110bc565b91506118bf836110bc565b9250826118cf576118ce61187a565b5b828204905092915050565b60006118e5826110bc565b91506118f0836110bc565b9250817fffffffffffffffffffffffffffffffffffffffffffffffffffffffffffffffff048311821515161561192957611928611620565b5b82820290509291505056fea26469706673582212207ea7b91353232e66531929df929534bb1743ca6e0ac41564bc4a8081f98ee8c364736f6c63430008090033",
  "immutableReferences": {},
  "source": "// SPDX-License-Identifier: MIT\r\npragma solidity 0.8.9;\r\nimport \"@openzeppelin/contracts/token/ERC20/IERC20.sol\";\r\nimport \"@openzeppelin/contracts/utils/math/SafeMath.sol\";\r\nimport \"@chainlink/contracts/src/v0.8/interfaces/AggregatorV3Interface.sol\";\r\n\r\nimport \"./Bibscoin.sol\";\r\nimport \"./Dai.sol\";\r\n\r\n/** @title Bibs Staking. */\r\ncontract BibsStaking {\r\n    using SafeMath for uint256;\r\n    Dai public dai;\r\n    Bibscoin public bibscoin;\r\n\r\n    AggregatorV3Interface internal priceFeed;\r\n\r\n    address[] stakers;\r\n    mapping(address => uint256) public stakingBalance;\r\n    mapping(address => bool) public isStaking;\r\n    mapping(address => uint256) public timestamp;\r\n\r\n    event Staked(address user, uint256 amount);\r\n    event Unstaked(address user, uint256 amount);\r\n    event RewardIssued(address user, uint256 amount);\r\n\r\n    /** @notice Constructor of the contract.\r\n     * @dev Network: Kovan, Aggregator: DAI/ETH, Address: 0x22B58f1EbEDfCA50feF632bD73368b2FdA96D541\r\n     * @param _daiAddress Address of the Dai token.\r\n     * @param _bibscoinAddress Address of the Bibscoin token.\r\n     * @param _aggregatorAddress Address of the aggregator chainlink.\r\n     */\r\n    constructor(Dai _daiAddress, Bibscoin _bibscoinAddress, address _aggregatorAddress) {\r\n        dai = _daiAddress;\r\n        bibscoin = _bibscoinAddress;\r\n        priceFeed = AggregatorV3Interface(_aggregatorAddress);\r\n    }\r\n\r\n    /** @notice Get the current DAI/ETH price.\r\n     * @dev The function uses the chainlink aggregator.\r\n     */\r\n    function getDaiEthPrice() public view returns (int256) {\r\n        (\r\n            uint80 roundID,\r\n            int256 price,\r\n            uint256 startedAt,\r\n            uint256 timeStamp,\r\n            uint80 answeredInRound\r\n        ) = priceFeed.latestRoundData();\r\n        return price;\r\n    }\r\n\r\n    /** @notice Calculate the Reward of Bibscoin token.\r\n     * @dev The function uses the current DAI/ETH rate and calculates the period over which DAIs are stacked.\r\n     */\r\n    function calculateReward() internal view returns (uint256) {\r\n        if (stakingBalance[msg.sender] == 0) {\r\n            return 0;\r\n        }\r\n        uint256 daiEthPrice = uint256(getDaiEthPrice());\r\n        uint256 stakingPeriod = (block.timestamp - timestamp[msg.sender]) / (1 seconds);\r\n        return (((stakingBalance[msg.sender] * daiEthPrice) / 1e18) / 1000) * stakingPeriod;\r\n    }\r\n\r\n    /** @notice Issue Bibscoin reward to the user. */\r\n    function issueReward() internal {\r\n        uint256 reward = calculateReward();\r\n        require(reward > 0, \"No Reward available !\");\r\n        require((block.timestamp - timestamp[msg.sender]) > 1 seconds, \"Wait at least 1 second to claim again rewards\");\r\n\r\n        timestamp[msg.sender] = block.timestamp;\r\n        bibscoin.mint(address(this), reward);\r\n        bibscoin.transfer(msg.sender, reward);\r\n        emit RewardIssued(msg.sender, reward);\r\n    }\r\n\r\n    /** @notice Stake Dai token.\r\n     * @dev The function transfert Dai from the user to the contract and issue reward if he's already staking.\r\n     * @param _amount The amount of token to stake.\r\n     */\r\n    function stake(uint256 _amount) external {\r\n        require(_amount > 0, \"The amount must be positive\");\r\n        require(dai.balanceOf(msg.sender) >= _amount && dai.balanceOf(address(this)) + _amount >= dai.balanceOf(address(this)), \"Insufficient balance\");\r\n\r\n        if (isStaking[msg.sender]) {\r\n            issueReward();\r\n        } else {\r\n            isStaking[msg.sender] = true;\r\n            timestamp[msg.sender] = block.timestamp;\r\n            stakers.push(msg.sender);\r\n        }\r\n\r\n        stakingBalance[msg.sender] = stakingBalance[msg.sender].add(_amount);\r\n        dai.transferFrom(msg.sender, address(this), _amount);\r\n\r\n        emit Staked(msg.sender, _amount);\r\n    }\r\n\r\n    /** @notice Unstake Dai token.\r\n     * @dev The function transfert Dai from the contract to the user and issue reward. If unstake is executed with 0 as amount, it withdraw only the reward.\r\n     * @param _amount The amount of token to unstake.\r\n     */\r\n    function unstake(uint256 _amount) external {\r\n        require(isStaking[msg.sender], \"You don't own token staked\");\r\n        require(_amount <= stakingBalance[msg.sender], \"Insufficient staked amount\");\r\n\r\n        issueReward();\r\n\r\n        if (_amount > 0) {\r\n            stakingBalance[msg.sender] = stakingBalance[msg.sender].sub(_amount);\r\n            dai.transfer(msg.sender, _amount);\r\n        }\r\n        \r\n        if (stakingBalance[msg.sender] == 0) {\r\n            isStaking[msg.sender] = false;\r\n        }\r\n\r\n        emit Unstaked(msg.sender, _amount);\r\n    }\r\n}\r\n",
  "sourcePath": "D:\\TAF\\Alyra\\Cours\\DApp\\StakingDAPP\\contracts\\BibsStaking.sol",
  "compiler": {
    "name": "solc",
    "version": "0.8.9+commit.e5eed63a.Emscripten.clang"
  },
  "schemaVersion": "3.4.3",
  "updatedAt": "2021-10-05T10:58:33.463Z",
  "networkType": "ethereum",
  "devdoc": {
    "kind": "dev",
    "methods": {
      "constructor": {
        "details": "Network: Kovan, Aggregator: DAI/ETH, Address: 0x22B58f1EbEDfCA50feF632bD73368b2FdA96D541",
        "params": {
          "_aggregatorAddress": "Address of the aggregator chainlink.",
          "_bibscoinAddress": "Address of the Bibscoin token.",
          "_daiAddress": "Address of the Dai token."
        }
      },
      "getDaiEthPrice()": {
        "details": "The function uses the chainlink aggregator."
      },
      "stake(uint256)": {
        "details": "The function transfert Dai from the user to the contract and issue reward if he's already staking.",
        "params": {
          "_amount": "The amount of token to stake."
        }
      },
      "unstake(uint256)": {
        "details": "The function transfert Dai from the contract to the user and issue reward. If unstake is executed with 0 as amount, it withdraw only the reward.",
        "params": {
          "_amount": "The amount of token to unstake."
        }
      }
    },
    "title": "Bibs Staking. ",
    "version": 1
  },
  "userdoc": {
    "kind": "user",
    "methods": {
      "constructor": {
        "notice": "Constructor of the contract."
      },
      "getDaiEthPrice()": {
        "notice": "Get the current DAI/ETH price."
      },
      "stake(uint256)": {
        "notice": "Stake Dai token."
      },
      "unstake(uint256)": {
        "notice": "Unstake Dai token."
      }
    },
    "version": 1
  }
}