{
  "contractName": "BibsStaking",
  "abi": [
    {
      "inputs": [
        {
          "internalType": "contract Dai",
          "name": "_daiAddress",
          "type": "address"
        },
        {
          "internalType": "contract Bibscoin",
          "name": "_bibscoinAddress",
          "type": "address"
        }
      ],
      "stateMutability": "nonpayable",
      "type": "constructor"
    },
    {
      "anonymous": false,
      "inputs": [
        {
          "indexed": true,
          "internalType": "address",
          "name": "previousOwner",
          "type": "address"
        },
        {
          "indexed": true,
          "internalType": "address",
          "name": "newOwner",
          "type": "address"
        }
      ],
      "name": "OwnershipTransferred",
      "type": "event"
    },
    {
      "anonymous": false,
      "inputs": [
        {
          "indexed": false,
          "internalType": "address",
          "name": "user",
          "type": "address"
        },
        {
          "indexed": false,
          "internalType": "uint256",
          "name": "amount",
          "type": "uint256"
        }
      ],
      "name": "RewardIssued",
      "type": "event"
    },
    {
      "anonymous": false,
      "inputs": [
        {
          "indexed": false,
          "internalType": "address",
          "name": "user",
          "type": "address"
        },
        {
          "indexed": false,
          "internalType": "uint256",
          "name": "amount",
          "type": "uint256"
        }
      ],
      "name": "Staked",
      "type": "event"
    },
    {
      "anonymous": false,
      "inputs": [
        {
          "indexed": false,
          "internalType": "address",
          "name": "user",
          "type": "address"
        },
        {
          "indexed": false,
          "internalType": "uint256",
          "name": "amount",
          "type": "uint256"
        }
      ],
      "name": "Unstaked",
      "type": "event"
    },
    {
      "inputs": [],
      "name": "bibscoin",
      "outputs": [
        {
          "internalType": "contract Bibscoin",
          "name": "",
          "type": "address"
        }
      ],
      "stateMutability": "view",
      "type": "function",
      "constant": true
    },
    {
      "inputs": [],
      "name": "dai",
      "outputs": [
        {
          "internalType": "contract Dai",
          "name": "",
          "type": "address"
        }
      ],
      "stateMutability": "view",
      "type": "function",
      "constant": true
    },
    {
      "inputs": [
        {
          "internalType": "address",
          "name": "",
          "type": "address"
        }
      ],
      "name": "hasStaked",
      "outputs": [
        {
          "internalType": "bool",
          "name": "",
          "type": "bool"
        }
      ],
      "stateMutability": "view",
      "type": "function",
      "constant": true
    },
    {
      "inputs": [
        {
          "internalType": "address",
          "name": "",
          "type": "address"
        }
      ],
      "name": "isStaking",
      "outputs": [
        {
          "internalType": "bool",
          "name": "",
          "type": "bool"
        }
      ],
      "stateMutability": "view",
      "type": "function",
      "constant": true
    },
    {
      "inputs": [],
      "name": "owner",
      "outputs": [
        {
          "internalType": "address",
          "name": "",
          "type": "address"
        }
      ],
      "stateMutability": "view",
      "type": "function",
      "constant": true
    },
    {
      "inputs": [],
      "name": "renounceOwnership",
      "outputs": [],
      "stateMutability": "nonpayable",
      "type": "function"
    },
    {
      "inputs": [
        {
          "internalType": "address",
          "name": "",
          "type": "address"
        }
      ],
      "name": "stakingBalance",
      "outputs": [
        {
          "internalType": "uint256",
          "name": "",
          "type": "uint256"
        }
      ],
      "stateMutability": "view",
      "type": "function",
      "constant": true
    },
    {
      "inputs": [
        {
          "internalType": "address",
          "name": "newOwner",
          "type": "address"
        }
      ],
      "name": "transferOwnership",
      "outputs": [],
      "stateMutability": "nonpayable",
      "type": "function"
    },
    {
      "inputs": [
        {
          "internalType": "uint256",
          "name": "_amount",
          "type": "uint256"
        }
      ],
      "name": "stake",
      "outputs": [],
      "stateMutability": "nonpayable",
      "type": "function"
    },
    {
      "inputs": [
        {
          "internalType": "uint256",
          "name": "_amount",
          "type": "uint256"
        }
      ],
      "name": "unstake",
      "outputs": [],
      "stateMutability": "nonpayable",
      "type": "function"
    },
    {
      "inputs": [],
      "name": "issueReward",
      "outputs": [],
      "stateMutability": "nonpayable",
      "type": "function"
    }
  ],
  "bytecode": "0x60806040523480156200001157600080fd5b506040516200199238038062001992833981810160405281019062000037919062000282565b6200006962000054620000f3640100000000026401000000009004565b620000fb640100000000026401000000009004565b81600160006101000a81548173ffffffffffffffffffffffffffffffffffffffff021916908373ffffffffffffffffffffffffffffffffffffffff16021790555080600260006101000a81548173ffffffffffffffffffffffffffffffffffffffff021916908373ffffffffffffffffffffffffffffffffffffffff1602179055505050620002c9565b600033905090565b60008060009054906101000a900473ffffffffffffffffffffffffffffffffffffffff169050816000806101000a81548173ffffffffffffffffffffffffffffffffffffffff021916908373ffffffffffffffffffffffffffffffffffffffff1602179055508173ffffffffffffffffffffffffffffffffffffffff168173ffffffffffffffffffffffffffffffffffffffff167f8be0079c531659141344cd1fd0a4f28419497f9722a3daafe3b4186f6b6457e060405160405180910390a35050565b600080fd5b600073ffffffffffffffffffffffffffffffffffffffff82169050919050565b6000620001f182620001c4565b9050919050565b60006200020582620001e4565b9050919050565b6200021781620001f8565b81146200022357600080fd5b50565b60008151905062000237816200020c565b92915050565b60006200024a82620001e4565b9050919050565b6200025c816200023d565b81146200026857600080fd5b50565b6000815190506200027c8162000251565b92915050565b600080604083850312156200029c576200029b620001bf565b5b6000620002ac8582860162000226565b9250506020620002bf858286016200026b565b9150509250929050565b6116b980620002d96000396000f3fe608060405234801561001057600080fd5b50600436106100c6576000357c010000000000000000000000000000000000000000000000000000000090048063a694fc3a1161008e578063a694fc3a1461016f578063bf3149eb1461018b578063c93c8f34146101a9578063f2fde38b146101d9578063f483f33b146101f5578063f4b9fa75146101ff576100c6565b80632e17de78146100cb57806345bc78ab146100e75780636f49712b14610117578063715018a6146101475780638da5cb5b14610151575b600080fd5b6100e560048036038101906100e09190610ffa565b61021d565b005b61010160048036038101906100fc9190611085565b6105ac565b60405161010e91906110c1565b60405180910390f35b610131600480360381019061012c9190611085565b6105c4565b60405161013e91906110f7565b60405180910390f35b61014f6105e4565b005b61015961066c565b6040516101669190611121565b60405180910390f35b61018960048036038101906101849190610ffa565b610695565b005b610193610a35565b6040516101a0919061119b565b60405180910390f35b6101c360048036038101906101be9190611085565b610a5b565b6040516101d091906110f7565b60405180910390f35b6101f360048036038101906101ee9190611085565b610a7b565b005b6101fd610b73565b005b610207610e8b565b60405161021491906111d7565b60405180910390f35b60008111610260576040517f08c379a00000000000000000000000000000000000000000000000000000000081526004016102579061124f565b60405180910390fd5b600660003373ffffffffffffffffffffffffffffffffffffffff1673ffffffffffffffffffffffffffffffffffffffff16815260200190815260200160002060009054906101000a900460ff166102ec576040517f08c379a00000000000000000000000000000000000000000000000000000000081526004016102e3906112bb565b60405180910390fd5b80600460003373ffffffffffffffffffffffffffffffffffffffff1673ffffffffffffffffffffffffffffffffffffffff16815260200190815260200160002054101561036e576040517f08c379a000000000000000000000000000000000000000000000000000000000815260040161036590611327565b60405180910390fd5b6103c081600460003373ffffffffffffffffffffffffffffffffffffffff1673ffffffffffffffffffffffffffffffffffffffff16815260200190815260200160002054610eb190919063ffffffff16565b600460003373ffffffffffffffffffffffffffffffffffffffff1673ffffffffffffffffffffffffffffffffffffffff168152602001908152602001600020819055506000600460003373ffffffffffffffffffffffffffffffffffffffff1673ffffffffffffffffffffffffffffffffffffffff1681526020019081526020016000205414156104a4576000600660003373ffffffffffffffffffffffffffffffffffffffff1673ffffffffffffffffffffffffffffffffffffffff16815260200190815260200160002060006101000a81548160ff0219169083151502179055505b600160009054906101000a900473ffffffffffffffffffffffffffffffffffffffff1673ffffffffffffffffffffffffffffffffffffffff1663a9059cbb33836040518363ffffffff167c010000000000000000000000000000000000000000000000000000000002815260040161051d929190611347565b602060405180830381600087803b15801561053757600080fd5b505af115801561054b573d6000803e3d6000fd5b505050506040513d601f19601f8201168201806040525081019061056f919061139c565b507f0f5bb82176feb1b5e747e28471aa92156a04d9f3ab9f45f28e2d704232b93f7533826040516105a1929190611347565b60405180910390a150565b60046020528060005260406000206000915090505481565b60066020528060005260406000206000915054906101000a900460ff1681565b6105ec610ec7565b73ffffffffffffffffffffffffffffffffffffffff1661060a61066c565b73ffffffffffffffffffffffffffffffffffffffff1614610660576040517f08c379a000000000000000000000000000000000000000000000000000000000815260040161065790611415565b60405180910390fd5b61066a6000610ecf565b565b60008060009054906101000a900473ffffffffffffffffffffffffffffffffffffffff16905090565b600081116106d8576040517f08c379a00000000000000000000000000000000000000000000000000000000081526004016106cf9061124f565b60405180910390fd5b600160009054906101000a900473ffffffffffffffffffffffffffffffffffffffff1673ffffffffffffffffffffffffffffffffffffffff166323b872dd3330846040518463ffffffff167c010000000000000000000000000000000000000000000000000000000002815260040161075393929190611435565b602060405180830381600087803b15801561076d57600080fd5b505af1158015610781573d6000803e3d6000fd5b505050506040513d601f19601f820116820180604052508101906107a5919061139c565b506107f881600460003373ffffffffffffffffffffffffffffffffffffffff1673ffffffffffffffffffffffffffffffffffffffff16815260200190815260200160002054610f9390919063ffffffff16565b600460003373ffffffffffffffffffffffffffffffffffffffff1673ffffffffffffffffffffffffffffffffffffffff16815260200190815260200160002081905550600560003373ffffffffffffffffffffffffffffffffffffffff1673ffffffffffffffffffffffffffffffffffffffff16815260200190815260200160002060009054906101000a900460ff16610948576003339080600181540180825580915050600190039060005260206000200160009091909190916101000a81548173ffffffffffffffffffffffffffffffffffffffff021916908373ffffffffffffffffffffffffffffffffffffffff1602179055506001600560003373ffffffffffffffffffffffffffffffffffffffff1673ffffffffffffffffffffffffffffffffffffffff16815260200190815260200160002060006101000a81548160ff0219169083151502179055505b60011515600660003373ffffffffffffffffffffffffffffffffffffffff1673ffffffffffffffffffffffffffffffffffffffff16815260200190815260200160002060009054906101000a900460ff161515146109f9576001600660003373ffffffffffffffffffffffffffffffffffffffff1673ffffffffffffffffffffffffffffffffffffffff16815260200190815260200160002060006101000a81548160ff0219169083151502179055505b7f9e71bc8eea02a63969f509818f2dafb9254532904319f9dbda79b67bd34a5f3d3382604051610a2a929190611347565b60405180910390a150565b600260009054906101000a900473ffffffffffffffffffffffffffffffffffffffff1681565b60056020528060005260406000206000915054906101000a900460ff1681565b610a83610ec7565b73ffffffffffffffffffffffffffffffffffffffff16610aa161066c565b73ffffffffffffffffffffffffffffffffffffffff1614610af7576040517f08c379a0000000000000000000000000000000000000000000000000000000008152600401610aee90611415565b60405180910390fd5b600073ffffffffffffffffffffffffffffffffffffffff168173ffffffffffffffffffffffffffffffffffffffff161415610b67576040517f08c379a0000000000000000000000000000000000000000000000000000000008152600401610b5e906114de565b60405180910390fd5b610b7081610ecf565b50565b600660003373ffffffffffffffffffffffffffffffffffffffff1673ffffffffffffffffffffffffffffffffffffffff16815260200190815260200160002060009054906101000a900460ff16610bff576040517f08c379a0000000000000000000000000000000000000000000000000000000008152600401610bf6906112bb565b60405180910390fd5b6000600460003373ffffffffffffffffffffffffffffffffffffffff1673ffffffffffffffffffffffffffffffffffffffff1681526020019081526020016000205411610c81576040517f08c379a0000000000000000000000000000000000000000000000000000000008152600401610c789061154a565b60405180910390fd5b6000610cd6600a600460003373ffffffffffffffffffffffffffffffffffffffff1673ffffffffffffffffffffffffffffffffffffffff16815260200190815260200160002054610fa990919063ffffffff16565b9050600260009054906101000a900473ffffffffffffffffffffffffffffffffffffffff1673ffffffffffffffffffffffffffffffffffffffff166340c10f1930836040518363ffffffff167c0100000000000000000000000000000000000000000000000000000000028152600401610d51929190611347565b600060405180830381600087803b158015610d6b57600080fd5b505af1158015610d7f573d6000803e3d6000fd5b50505050600260009054906101000a900473ffffffffffffffffffffffffffffffffffffffff1673ffffffffffffffffffffffffffffffffffffffff1663a9059cbb33836040518363ffffffff167c0100000000000000000000000000000000000000000000000000000000028152600401610dfc929190611347565b602060405180830381600087803b158015610e1657600080fd5b505af1158015610e2a573d6000803e3d6000fd5b505050506040513d601f19601f82011682018060405250810190610e4e919061139c565b507ff9b6ec770c96c3a6f9225bf3a8463a8ad03e884448af07b4ecd4d19d628946ee3382604051610e80929190611347565b60405180910390a150565b600160009054906101000a900473ffffffffffffffffffffffffffffffffffffffff1681565b60008183610ebf9190611599565b905092915050565b600033905090565b60008060009054906101000a900473ffffffffffffffffffffffffffffffffffffffff169050816000806101000a81548173ffffffffffffffffffffffffffffffffffffffff021916908373ffffffffffffffffffffffffffffffffffffffff1602179055508173ffffffffffffffffffffffffffffffffffffffff168173ffffffffffffffffffffffffffffffffffffffff167f8be0079c531659141344cd1fd0a4f28419497f9722a3daafe3b4186f6b6457e060405160405180910390a35050565b60008183610fa191906115cd565b905092915050565b60008183610fb79190611652565b905092915050565b600080fd5b6000819050919050565b610fd781610fc4565b8114610fe257600080fd5b50565b600081359050610ff481610fce565b92915050565b6000602082840312156110105761100f610fbf565b5b600061101e84828501610fe5565b91505092915050565b600073ffffffffffffffffffffffffffffffffffffffff82169050919050565b600061105282611027565b9050919050565b61106281611047565b811461106d57600080fd5b50565b60008135905061107f81611059565b92915050565b60006020828403121561109b5761109a610fbf565b5b60006110a984828501611070565b91505092915050565b6110bb81610fc4565b82525050565b60006020820190506110d660008301846110b2565b92915050565b60008115159050919050565b6110f1816110dc565b82525050565b600060208201905061110c60008301846110e8565b92915050565b61111b81611047565b82525050565b60006020820190506111366000830184611112565b92915050565b6000819050919050565b600061116161115c61115784611027565b61113c565b611027565b9050919050565b600061117382611146565b9050919050565b600061118582611168565b9050919050565b6111958161117a565b82525050565b60006020820190506111b0600083018461118c565b92915050565b60006111c182611168565b9050919050565b6111d1816111b6565b82525050565b60006020820190506111ec60008301846111c8565b92915050565b600082825260208201905092915050565b7f54686520616d6f756e74206d75737420626520706f7369746976650000000000600082015250565b6000611239601b836111f2565b915061124482611203565b602082019050919050565b600060208201905081810360008301526112688161122c565b9050919050565b7f596f7520646f6e2774206f776e20746f6b656e207374616b6564000000000000600082015250565b60006112a5601a836111f2565b91506112b08261126f565b602082019050919050565b600060208201905081810360008301526112d481611298565b9050919050565b7f596f7520646f6e2774206f776e206173206d616e7920746f6b656e7300000000600082015250565b6000611311601c836111f2565b915061131c826112db565b602082019050919050565b6000602082019050818103600083015261134081611304565b9050919050565b600060408201905061135c6000830185611112565b61136960208301846110b2565b9392505050565b611379816110dc565b811461138457600080fd5b50565b60008151905061139681611370565b92915050565b6000602082840312156113b2576113b1610fbf565b5b60006113c084828501611387565b91505092915050565b7f4f776e61626c653a2063616c6c6572206973206e6f7420746865206f776e6572600082015250565b60006113ff6020836111f2565b915061140a826113c9565b602082019050919050565b6000602082019050818103600083015261142e816113f2565b9050919050565b600060608201905061144a6000830186611112565b6114576020830185611112565b61146460408301846110b2565b949350505050565b7f4f776e61626c653a206e6577206f776e657220697320746865207a65726f206160008201527f6464726573730000000000000000000000000000000000000000000000000000602082015250565b60006114c86026836111f2565b91506114d38261146c565b604082019050919050565b600060208201905081810360008301526114f7816114bb565b9050919050565b7f596f7520646f6e2774206f776e20746f6b656e00000000000000000000000000600082015250565b60006115346013836111f2565b915061153f826114fe565b602082019050919050565b6000602082019050818103600083015261156381611527565b9050919050565b7f4e487b7100000000000000000000000000000000000000000000000000000000600052601160045260246000fd5b60006115a482610fc4565b91506115af83610fc4565b9250828210156115c2576115c161156a565b5b828203905092915050565b60006115d882610fc4565b91506115e383610fc4565b9250827fffffffffffffffffffffffffffffffffffffffffffffffffffffffffffffffff038211156116185761161761156a565b5b828201905092915050565b7f4e487b7100000000000000000000000000000000000000000000000000000000600052601260045260246000fd5b600061165d82610fc4565b915061166883610fc4565b92508261167857611677611623565b5b82820490509291505056fea2646970667358221220509e062dd77d9907ef932f75d32cacdfb513051c8acb0a0a435fc7893982ce8064736f6c63430008080033",
  "immutableReferences": {},
  "source": "// SPDX-License-Identifier: MIT\r\npragma solidity 0.8.8;\r\nimport \"@openzeppelin/contracts/token/ERC20/IERC20.sol\";\r\nimport \"@openzeppelin/contracts/access/Ownable.sol\";\r\nimport \"@openzeppelin/contracts/utils/math/SafeMath.sol\";\r\n\r\nimport \"./Bibscoin.sol\";\r\nimport \"./Dai.sol\";\r\n\r\ncontract BibsStaking is Ownable {\r\n    using SafeMath for uint256;\r\n    Dai public dai;\r\n    Bibscoin public bibscoin;\r\n\r\n    address[] stakers;\r\n    mapping(address => uint256) public stakingBalance;\r\n    // INFOS IMPORTANTES ???\r\n    mapping(address => bool) public hasStaked;\r\n    mapping(address => bool) public isStaking;\r\n\r\n    // Crer un struct comme voting ?\r\n    event Staked(address user, uint256 amount);\r\n    event Unstaked(address user, uint256 amount);\r\n    event RewardIssued(address user, uint256 amount);\r\n\r\n    constructor(Dai _daiAddress, Bibscoin _bibscoinAddress) {\r\n        // Injecter l'address du token Bibscoin et Dai  utiliser\r\n        dai = _daiAddress;\r\n        bibscoin = _bibscoinAddress;\r\n    }\r\n\r\n    // stake tokens\r\n    function stake(uint256 _amount) external {\r\n        require(_amount > 0, \"The amount must be positive\");\r\n        dai.transferFrom(msg.sender, address(this), _amount);\r\n        stakingBalance[msg.sender] = stakingBalance[msg.sender].add(_amount);\r\n        if (!hasStaked[msg.sender]) {\r\n            stakers.push(msg.sender);\r\n            hasStaked[msg.sender] = true;\r\n        }\r\n        if (isStaking[msg.sender] != true) {\r\n            isStaking[msg.sender] = true;\r\n        }\r\n        emit Staked(msg.sender, _amount);\r\n    }\r\n\r\n    // unstake tokens\r\n    function unstake(uint256 _amount) external {\r\n        require(_amount > 0, \"The amount must be positive\");\r\n        require(isStaking[msg.sender], \"You don't own token staked\");\r\n        require(stakingBalance[msg.sender] >= _amount, \"You don't own as many tokens\");\r\n        stakingBalance[msg.sender] = stakingBalance[msg.sender].sub(_amount);\r\n        if (stakingBalance[msg.sender] == 0) {\r\n            isStaking[msg.sender] = false;\r\n        }\r\n        dai.transfer(msg.sender, _amount);\r\n        emit Unstaked(msg.sender, _amount);\r\n    }\r\n\r\n    // Issuing tokens\r\n    function issueReward() external {\r\n        // for (uint256 i = 0; i < stakers.length; i++) {\r\n        //     // A MODIFIER, ENVOI AU STAKERS DU MEME MONTANT DE BIBS QUE DE LEUR MONTANT EN DAI STAK\r\n        //     if (stakingBalance[stakers[i]] > 0) {\r\n        //         bibscoin.transfer(stakers[i], stakingBalance[stakers[i]]);\r\n        //     }\r\n        // }\r\n        require(isStaking[msg.sender], \"You don't own token staked\");\r\n        require(stakingBalance[msg.sender] > 0, \"You don't own token\");\r\n        uint256 reward = stakingBalance[msg.sender].div(10);\r\n        bibscoin.mint(address(this), reward);\r\n        bibscoin.transfer(msg.sender, reward);\r\n        emit RewardIssued(msg.sender, reward);\r\n    }\r\n}\r\n",
  "sourcePath": "D:\\TAF\\Alyra\\Cours\\DApp\\StakingDAPP\\contracts\\BibsStaking.sol",
  "compiler": {
    "name": "solc",
    "version": "0.8.8+commit.dddeac2f.Emscripten.clang"
  },
  "schemaVersion": "3.4.3",
  "updatedAt": "2021-09-29T09:27:20.138Z",
  "networkType": "ethereum",
  "devdoc": {
    "kind": "dev",
    "methods": {
      "owner()": {
        "details": "Returns the address of the current owner."
      },
      "renounceOwnership()": {
        "details": "Leaves the contract without owner. It will not be possible to call `onlyOwner` functions anymore. Can only be called by the current owner. NOTE: Renouncing ownership will leave the contract without an owner, thereby removing any functionality that is only available to the owner."
      },
      "transferOwnership(address)": {
        "details": "Transfers ownership of the contract to a new account (`newOwner`). Can only be called by the current owner."
      }
    },
    "version": 1
  },
  "userdoc": {
    "kind": "user",
    "methods": {},
    "version": 1
  }
}