{
  "contractName": "BibsStaking",
  "abi": [
    {
      "inputs": [
        {
          "internalType": "address",
          "name": "daiAddress",
          "type": "address"
        },
        {
          "internalType": "address",
          "name": "bibscoinAddress",
          "type": "address"
        }
      ],
      "stateMutability": "nonpayable",
      "type": "constructor"
    },
    {
      "anonymous": false,
      "inputs": [
        {
          "indexed": true,
          "internalType": "address",
          "name": "previousOwner",
          "type": "address"
        },
        {
          "indexed": true,
          "internalType": "address",
          "name": "newOwner",
          "type": "address"
        }
      ],
      "name": "OwnershipTransferred",
      "type": "event"
    },
    {
      "inputs": [
        {
          "internalType": "address",
          "name": "",
          "type": "address"
        }
      ],
      "name": "hasStaked",
      "outputs": [
        {
          "internalType": "bool",
          "name": "",
          "type": "bool"
        }
      ],
      "stateMutability": "view",
      "type": "function"
    },
    {
      "inputs": [],
      "name": "owner",
      "outputs": [
        {
          "internalType": "address",
          "name": "",
          "type": "address"
        }
      ],
      "stateMutability": "view",
      "type": "function"
    },
    {
      "inputs": [],
      "name": "renounceOwnership",
      "outputs": [],
      "stateMutability": "nonpayable",
      "type": "function"
    },
    {
      "inputs": [
        {
          "internalType": "address",
          "name": "",
          "type": "address"
        }
      ],
      "name": "stakingBalance",
      "outputs": [
        {
          "internalType": "uint256",
          "name": "",
          "type": "uint256"
        }
      ],
      "stateMutability": "view",
      "type": "function"
    },
    {
      "inputs": [
        {
          "internalType": "address",
          "name": "newOwner",
          "type": "address"
        }
      ],
      "name": "transferOwnership",
      "outputs": [],
      "stateMutability": "nonpayable",
      "type": "function"
    },
    {
      "inputs": [
        {
          "internalType": "uint256",
          "name": "_amount",
          "type": "uint256"
        }
      ],
      "name": "stakeTokens",
      "outputs": [],
      "stateMutability": "nonpayable",
      "type": "function"
    },
    {
      "inputs": [
        {
          "internalType": "uint256",
          "name": "_amount",
          "type": "uint256"
        }
      ],
      "name": "unstakeTokens",
      "outputs": [],
      "stateMutability": "nonpayable",
      "type": "function"
    },
    {
      "inputs": [],
      "name": "issueTokens",
      "outputs": [],
      "stateMutability": "nonpayable",
      "type": "function"
    }
  ],
  "bytecode": "0x60806040523480156200001157600080fd5b5060405162001335380380620013358339818101604052810190620000379190620001d6565b6200006962000054620000f3640100000000026401000000009004565b620000fb640100000000026401000000009004565b81600160006101000a81548173ffffffffffffffffffffffffffffffffffffffff021916908373ffffffffffffffffffffffffffffffffffffffff16021790555080600260006101000a81548173ffffffffffffffffffffffffffffffffffffffff021916908373ffffffffffffffffffffffffffffffffffffffff160217905550505062000270565b600033905090565b60008060009054906101000a900473ffffffffffffffffffffffffffffffffffffffff169050816000806101000a81548173ffffffffffffffffffffffffffffffffffffffff021916908373ffffffffffffffffffffffffffffffffffffffff1602179055508173ffffffffffffffffffffffffffffffffffffffff168173ffffffffffffffffffffffffffffffffffffffff167f8be0079c531659141344cd1fd0a4f28419497f9722a3daafe3b4186f6b6457e060405160405180910390a35050565b600081519050620001d08162000256565b92915050565b60008060408385031215620001f057620001ef62000251565b5b60006200020085828601620001bf565b92505060206200021385828601620001bf565b9150509250929050565b60006200022a8262000231565b9050919050565b600073ffffffffffffffffffffffffffffffffffffffff82169050919050565b600080fd5b62000261816200021d565b81146200026d57600080fd5b50565b6110b580620002806000396000f3fe608060405234801561001057600080fd5b50600436106100a5576000357c0100000000000000000000000000000000000000000000000000000000900480637547c7a3116100785780637547c7a31461010a5780638da5cb5b14610126578063c93c8f3414610144578063f2fde38b14610174576100a5565b806345bc78ab146100aa578063608e4dd0146100da57806360ab5852146100f6578063715018a614610100575b600080fd5b6100c460048036038101906100bf9190610ba4565b610190565b6040516100d19190610dfa565b60405180910390f35b6100f460048036038101906100ef9190610bfe565b6101a8565b005b6100fe6102fb565b005b6101086105ab565b005b610124600480360381019061011f9190610bfe565b610633565b005b61012e610942565b60405161013b9190610ce4565b60405180910390f35b61015e60048036038101906101599190610ba4565b61096b565b60405161016b9190610d5f565b60405180910390f35b61018e60048036038101906101899190610ba4565b61098b565b005b60046020528060005260406000206000915090505481565b600460003373ffffffffffffffffffffffffffffffffffffffff1673ffffffffffffffffffffffffffffffffffffffff1681526020019081526020016000205481111561022a576040517f08c379a000000000000000000000000000000000000000000000000000000000815260040161022190610dda565b60405180910390fd5b600260009054906101000a900473ffffffffffffffffffffffffffffffffffffffff1673ffffffffffffffffffffffffffffffffffffffff166323b872dd3033846040518463ffffffff167c01000000000000000000000000000000000000000000000000000000000281526004016102a593929190610cff565b602060405180830381600087803b1580156102bf57600080fd5b505af11580156102d3573d6000803e3d6000fd5b505050506040513d601f19601f820116820180604052508101906102f79190610bd1565b5050565b610303610a83565b73ffffffffffffffffffffffffffffffffffffffff16610321610942565b73ffffffffffffffffffffffffffffffffffffffff1614610377576040517f08c379a000000000000000000000000000000000000000000000000000000000815260040161036e90610d9a565b60405180910390fd5b60005b6003805490508110156105a857600060046000600384815481106103a1576103a0610f3c565b5b9060005260206000200160009054906101000a900473ffffffffffffffffffffffffffffffffffffffff1673ffffffffffffffffffffffffffffffffffffffff1673ffffffffffffffffffffffffffffffffffffffff16815260200190815260200160002054111561059557600260009054906101000a900473ffffffffffffffffffffffffffffffffffffffff1673ffffffffffffffffffffffffffffffffffffffff1663a9059cbb6003838154811061045f5761045e610f3c565b5b9060005260206000200160009054906101000a900473ffffffffffffffffffffffffffffffffffffffff1660046000600386815481106104a2576104a1610f3c565b5b9060005260206000200160009054906101000a900473ffffffffffffffffffffffffffffffffffffffff1673ffffffffffffffffffffffffffffffffffffffff1673ffffffffffffffffffffffffffffffffffffffff168152602001908152602001600020546040518363ffffffff167c0100000000000000000000000000000000000000000000000000000000028152600401610541929190610d36565b602060405180830381600087803b15801561055b57600080fd5b505af115801561056f573d6000803e3d6000fd5b505050506040513d601f19601f820116820180604052508101906105939190610bd1565b505b80806105a090610ec4565b91505061037a565b50565b6105b3610a83565b73ffffffffffffffffffffffffffffffffffffffff166105d1610942565b73ffffffffffffffffffffffffffffffffffffffff1614610627576040517f08c379a000000000000000000000000000000000000000000000000000000000815260040161061e90610d9a565b60405180910390fd5b6106316000610a8b565b565b60008111610676576040517f08c379a000000000000000000000000000000000000000000000000000000000815260040161066d90610dba565b60405180910390fd5b600160009054906101000a900473ffffffffffffffffffffffffffffffffffffffff1673ffffffffffffffffffffffffffffffffffffffff166323b872dd3330846040518463ffffffff167c01000000000000000000000000000000000000000000000000000000000281526004016106f193929190610cff565b602060405180830381600087803b15801561070b57600080fd5b505af115801561071f573d6000803e3d6000fd5b505050506040513d601f19601f820116820180604052508101906107439190610bd1565b5061079681600460003373ffffffffffffffffffffffffffffffffffffffff1673ffffffffffffffffffffffffffffffffffffffff16815260200190815260200160002054610b4f90919063ffffffff16565b600460003373ffffffffffffffffffffffffffffffffffffffff1673ffffffffffffffffffffffffffffffffffffffff16815260200190815260200160002081905550600560003373ffffffffffffffffffffffffffffffffffffffff1673ffffffffffffffffffffffffffffffffffffffff16815260200190815260200160002060009054906101000a900460ff1661088e576003339080600181540180825580915050600190039060005260206000200160009091909190916101000a81548173ffffffffffffffffffffffffffffffffffffffff021916908373ffffffffffffffffffffffffffffffffffffffff1602179055505b60011515600560003373ffffffffffffffffffffffffffffffffffffffff1673ffffffffffffffffffffffffffffffffffffffff16815260200190815260200160002060009054906101000a900460ff1615151461093f576001600560003373ffffffffffffffffffffffffffffffffffffffff1673ffffffffffffffffffffffffffffffffffffffff16815260200190815260200160002060006101000a81548160ff0219169083151502179055505b50565b60008060009054906101000a900473ffffffffffffffffffffffffffffffffffffffff16905090565b60056020528060005260406000206000915054906101000a900460ff1681565b610993610a83565b73ffffffffffffffffffffffffffffffffffffffff166109b1610942565b73ffffffffffffffffffffffffffffffffffffffff1614610a07576040517f08c379a00000000000000000000000000000000000000000000000000000000081526004016109fe90610d9a565b60405180910390fd5b600073ffffffffffffffffffffffffffffffffffffffff168173ffffffffffffffffffffffffffffffffffffffff161415610a77576040517f08c379a0000000000000000000000000000000000000000000000000000000008152600401610a6e90610d7a565b60405180910390fd5b610a8081610a8b565b50565b600033905090565b60008060009054906101000a900473ffffffffffffffffffffffffffffffffffffffff169050816000806101000a81548173ffffffffffffffffffffffffffffffffffffffff021916908373ffffffffffffffffffffffffffffffffffffffff1602179055508173ffffffffffffffffffffffffffffffffffffffff168173ffffffffffffffffffffffffffffffffffffffff167f8be0079c531659141344cd1fd0a4f28419497f9722a3daafe3b4186f6b6457e060405160405180910390a35050565b60008183610b5d9190610e26565b905092915050565b600081359050610b748161103a565b92915050565b600081519050610b8981611051565b92915050565b600081359050610b9e81611068565b92915050565b600060208284031215610bba57610bb9610f6b565b5b6000610bc884828501610b65565b91505092915050565b600060208284031215610be757610be6610f6b565b5b6000610bf584828501610b7a565b91505092915050565b600060208284031215610c1457610c13610f6b565b5b6000610c2284828501610b8f565b91505092915050565b610c3481610e7c565b82525050565b610c4381610e8e565b82525050565b6000610c56602683610e15565b9150610c6182610f70565b604082019050919050565b6000610c79602083610e15565b9150610c8482610fbf565b602082019050919050565b6000610c9c601b83610e15565b9150610ca782610fe8565b602082019050919050565b6000610cbf601c83610e15565b9150610cca82611011565b602082019050919050565b610cde81610eba565b82525050565b6000602082019050610cf96000830184610c2b565b92915050565b6000606082019050610d146000830186610c2b565b610d216020830185610c2b565b610d2e6040830184610cd5565b949350505050565b6000604082019050610d4b6000830185610c2b565b610d586020830184610cd5565b9392505050565b6000602082019050610d746000830184610c3a565b92915050565b60006020820190508181036000830152610d9381610c49565b9050919050565b60006020820190508181036000830152610db381610c6c565b9050919050565b60006020820190508181036000830152610dd381610c8f565b9050919050565b60006020820190508181036000830152610df381610cb2565b9050919050565b6000602082019050610e0f6000830184610cd5565b92915050565b600082825260208201905092915050565b6000610e3182610eba565b9150610e3c83610eba565b9250827fffffffffffffffffffffffffffffffffffffffffffffffffffffffffffffffff03821115610e7157610e70610f0d565b5b828201905092915050565b6000610e8782610e9a565b9050919050565b60008115159050919050565b600073ffffffffffffffffffffffffffffffffffffffff82169050919050565b6000819050919050565b6000610ecf82610eba565b91507fffffffffffffffffffffffffffffffffffffffffffffffffffffffffffffffff821415610f0257610f01610f0d565b5b600182019050919050565b7f4e487b7100000000000000000000000000000000000000000000000000000000600052601160045260246000fd5b7f4e487b7100000000000000000000000000000000000000000000000000000000600052603260045260246000fd5b600080fd5b7f4f776e61626c653a206e6577206f776e657220697320746865207a65726f206160008201527f6464726573730000000000000000000000000000000000000000000000000000602082015250565b7f4f776e61626c653a2063616c6c6572206973206e6f7420746865206f776e6572600082015250565b7f54686520616d6f756e74206d75737420626520706f7369746976650000000000600082015250565b7f596f7520646f6e2774206f776e206173206d616e7920746f6b656e7300000000600082015250565b61104381610e7c565b811461104e57600080fd5b50565b61105a81610e8e565b811461106557600080fd5b50565b61107181610eba565b811461107c57600080fd5b5056fea2646970667358221220562a601370898851de9c6947aed1a0dc6684d1399df14431e1c7d509d515da0164736f6c63430008070033",
  "immutableReferences": {},
  "source": "// SPDX-License-Identifier: MIT\r\npragma solidity 0.8.7;\r\nimport \"@openzeppelin/contracts/token/ERC20/IERC20.sol\";\r\nimport \"@openzeppelin/contracts/access/Ownable.sol\";\r\nimport \"@openzeppelin/contracts/utils/math/SafeMath.sol\";\r\n\r\ncontract BibsStaking is Ownable {\r\n  using SafeMath for uint;\r\n    IERC20 dai;\r\n    IERC20 bibscoin;\r\n\r\n    address[] stakers;\r\n    mapping(address => uint256) public stakingBalance;\r\n    mapping(address => bool) public hasStaked;\r\n\r\n    // Crer un struct comme voting\r\n\r\n    constructor(address daiAddress, address bibscoinAddress) {\r\n        // Injecter l'address du token Bibscoin et Dai  utiliser\r\n        dai = IERC20(daiAddress);\r\n        bibscoin = IERC20(bibscoinAddress);\r\n    }\r\n\r\n    // stake tokens\r\n    function stakeTokens(uint256 _amount) external {\r\n        require(_amount > 0, \"The amount must be positive\");\r\n        dai.transferFrom(msg.sender, address(this), _amount);\r\n        stakingBalance[msg.sender] = stakingBalance[msg.sender].add(_amount);\r\n        if (!hasStaked[msg.sender]) {\r\n            stakers.push(msg.sender);\r\n        }\r\n        if (hasStaked[msg.sender] != true) {\r\n            hasStaked[msg.sender] = true;\r\n        }\r\n    }\r\n\r\n    // unstake tokens\r\n    function unstakeTokens(uint256 _amount) external {\r\n        require(_amount <= stakingBalance[msg.sender], \"You don't own as many tokens\");\r\n        bibscoin.transferFrom(address(this), msg.sender, _amount);\r\n        // stakingBalance\r\n    }\r\n\r\n    // Issuing tokens\r\n    function issueTokens() external onlyOwner {\r\n        for (uint256 i = 0; i < stakers.length; i++) {\r\n            // A MODIFIER, ENVOI AU STAKERS DU MEME MONTANT DE BIBS QUE DE LEUR MONTANT EN DAI STAK\r\n            if (stakingBalance[stakers[i]] > 0) {\r\n                bibscoin.transfer(stakers[i], stakingBalance[stakers[i]]);\r\n            }\r\n        }\r\n    }\r\n}\r\n",
  "sourcePath": "D:\\TAF\\Alyra\\Cours\\DApp\\StakingDAPP\\contracts\\BibsStaking.sol",
  "compiler": {
    "name": "solc",
    "version": "0.8.7+commit.e28d00a7.Emscripten.clang"
  },
  "schemaVersion": "3.4.3",
  "updatedAt": "2021-09-26T08:54:14.016Z",
  "devdoc": {
    "kind": "dev",
    "methods": {
      "owner()": {
        "details": "Returns the address of the current owner."
      },
      "renounceOwnership()": {
        "details": "Leaves the contract without owner. It will not be possible to call `onlyOwner` functions anymore. Can only be called by the current owner. NOTE: Renouncing ownership will leave the contract without an owner, thereby removing any functionality that is only available to the owner."
      },
      "transferOwnership(address)": {
        "details": "Transfers ownership of the contract to a new account (`newOwner`). Can only be called by the current owner."
      }
    },
    "version": 1
  },
  "userdoc": {
    "kind": "user",
    "methods": {},
    "version": 1
  }
}