{
  "contractName": "BibsStaking",
  "abi": [
    {
      "inputs": [
        {
          "internalType": "contract Dai",
          "name": "_daiAddress",
          "type": "address"
        },
        {
          "internalType": "contract Bibscoin",
          "name": "_bibscoinAddress",
          "type": "address"
        },
        {
          "internalType": "address",
          "name": "_address",
          "type": "address"
        }
      ],
      "stateMutability": "nonpayable",
      "type": "constructor"
    },
    {
      "anonymous": false,
      "inputs": [
        {
          "indexed": false,
          "internalType": "address",
          "name": "user",
          "type": "address"
        },
        {
          "indexed": false,
          "internalType": "uint256",
          "name": "amount",
          "type": "uint256"
        }
      ],
      "name": "RewardIssued",
      "type": "event"
    },
    {
      "anonymous": false,
      "inputs": [
        {
          "indexed": false,
          "internalType": "address",
          "name": "user",
          "type": "address"
        },
        {
          "indexed": false,
          "internalType": "uint256",
          "name": "amount",
          "type": "uint256"
        }
      ],
      "name": "Staked",
      "type": "event"
    },
    {
      "anonymous": false,
      "inputs": [
        {
          "indexed": false,
          "internalType": "address",
          "name": "user",
          "type": "address"
        },
        {
          "indexed": false,
          "internalType": "uint256",
          "name": "amount",
          "type": "uint256"
        }
      ],
      "name": "Unstaked",
      "type": "event"
    },
    {
      "inputs": [],
      "name": "bibscoin",
      "outputs": [
        {
          "internalType": "contract Bibscoin",
          "name": "",
          "type": "address"
        }
      ],
      "stateMutability": "view",
      "type": "function",
      "constant": true
    },
    {
      "inputs": [],
      "name": "dai",
      "outputs": [
        {
          "internalType": "contract Dai",
          "name": "",
          "type": "address"
        }
      ],
      "stateMutability": "view",
      "type": "function",
      "constant": true
    },
    {
      "inputs": [
        {
          "internalType": "address",
          "name": "",
          "type": "address"
        }
      ],
      "name": "isStaking",
      "outputs": [
        {
          "internalType": "bool",
          "name": "",
          "type": "bool"
        }
      ],
      "stateMutability": "view",
      "type": "function",
      "constant": true
    },
    {
      "inputs": [
        {
          "internalType": "address",
          "name": "",
          "type": "address"
        }
      ],
      "name": "stakingBalance",
      "outputs": [
        {
          "internalType": "uint256",
          "name": "",
          "type": "uint256"
        }
      ],
      "stateMutability": "view",
      "type": "function",
      "constant": true
    },
    {
      "inputs": [
        {
          "internalType": "address",
          "name": "",
          "type": "address"
        }
      ],
      "name": "timestamp",
      "outputs": [
        {
          "internalType": "uint256",
          "name": "",
          "type": "uint256"
        }
      ],
      "stateMutability": "view",
      "type": "function",
      "constant": true
    },
    {
      "inputs": [
        {
          "internalType": "uint256",
          "name": "_amount",
          "type": "uint256"
        }
      ],
      "name": "stake",
      "outputs": [],
      "stateMutability": "nonpayable",
      "type": "function"
    },
    {
      "inputs": [],
      "name": "calculateReward",
      "outputs": [
        {
          "internalType": "uint256",
          "name": "",
          "type": "uint256"
        }
      ],
      "stateMutability": "view",
      "type": "function",
      "constant": true
    },
    {
      "inputs": [],
      "name": "getDaiEthPrice",
      "outputs": [
        {
          "internalType": "int256",
          "name": "",
          "type": "int256"
        }
      ],
      "stateMutability": "view",
      "type": "function",
      "constant": true
    },
    {
      "inputs": [
        {
          "internalType": "uint256",
          "name": "_amount",
          "type": "uint256"
        }
      ],
      "name": "unstake",
      "outputs": [],
      "stateMutability": "nonpayable",
      "type": "function"
    }
  ],
  "bytecode": "0x60806040523480156200001157600080fd5b50604051620018e8380380620018e88339818101604052810190620000379190620001f6565b826000806101000a81548173ffffffffffffffffffffffffffffffffffffffff021916908373ffffffffffffffffffffffffffffffffffffffff16021790555081600160006101000a81548173ffffffffffffffffffffffffffffffffffffffff021916908373ffffffffffffffffffffffffffffffffffffffff16021790555080600260006101000a81548173ffffffffffffffffffffffffffffffffffffffff021916908373ffffffffffffffffffffffffffffffffffffffff16021790555050505062000252565b600080fd5b600073ffffffffffffffffffffffffffffffffffffffff82169050919050565b6000620001348262000107565b9050919050565b6000620001488262000127565b9050919050565b6200015a816200013b565b81146200016657600080fd5b50565b6000815190506200017a816200014f565b92915050565b60006200018d8262000127565b9050919050565b6200019f8162000180565b8114620001ab57600080fd5b50565b600081519050620001bf8162000194565b92915050565b620001d08162000127565b8114620001dc57600080fd5b50565b600081519050620001f081620001c5565b92915050565b60008060006060848603121562000212576200021162000102565b5b6000620002228682870162000169565b93505060206200023586828701620001ae565b92505060406200024886828701620001df565b9150509250925092565b61168680620002626000396000f3fe608060405234801561001057600080fd5b50600436106100b0576000357c010000000000000000000000000000000000000000000000000000000090048063725cedd311610083578063725cedd31461014f5780637302dacf1461016d578063a694fc3a1461019d578063bf3149eb146101b9578063f4b9fa75146101d7576100b0565b80632e17de78146100b557806345bc78ab146100d15780634734571c146101015780636f49712b1461011f575b600080fd5b6100cf60048036038101906100ca9190610ec2565b6101f5565b005b6100eb60048036038101906100e69190610f4d565b610551565b6040516100f89190610f89565b60405180910390f35b610109610569565b6040516101169190610fbd565b60405180910390f35b61013960048036038101906101349190610f4d565b610643565b6040516101469190610ff3565b60405180910390f35b610157610663565b6040516101649190610f89565b60405180910390f35b61018760048036038101906101829190610f4d565b61079a565b6040516101949190610f89565b60405180910390f35b6101b760048036038101906101b29190610ec2565b6107b2565b005b6101c1610b3e565b6040516101ce919061106d565b60405180910390f35b6101df610b64565b6040516101ec91906110a9565b60405180910390f35b600560003373ffffffffffffffffffffffffffffffffffffffff1673ffffffffffffffffffffffffffffffffffffffff16815260200190815260200160002060009054906101000a900460ff16610281576040517f08c379a000000000000000000000000000000000000000000000000000000000815260040161027890611121565b60405180910390fd5b600460003373ffffffffffffffffffffffffffffffffffffffff1673ffffffffffffffffffffffffffffffffffffffff16815260200190815260200160002054811115610303576040517f08c379a00000000000000000000000000000000000000000000000000000000081526004016102fa9061118d565b60405180910390fd5b61030b610b88565b60008111156104745761036681600460003373ffffffffffffffffffffffffffffffffffffffff1673ffffffffffffffffffffffffffffffffffffffff16815260200190815260200160002054610e5b90919063ffffffff16565b600460003373ffffffffffffffffffffffffffffffffffffffff1673ffffffffffffffffffffffffffffffffffffffff1681526020019081526020016000208190555060008054906101000a900473ffffffffffffffffffffffffffffffffffffffff1673ffffffffffffffffffffffffffffffffffffffff1663a9059cbb33836040518363ffffffff167c01000000000000000000000000000000000000000000000000000000000281526004016104209291906111bc565b602060405180830381600087803b15801561043a57600080fd5b505af115801561044e573d6000803e3d6000fd5b505050506040513d601f19601f820116820180604052508101906104729190611211565b505b6000600460003373ffffffffffffffffffffffffffffffffffffffff1673ffffffffffffffffffffffffffffffffffffffff168152602001908152602001600020541415610515576000600560003373ffffffffffffffffffffffffffffffffffffffff1673ffffffffffffffffffffffffffffffffffffffff16815260200190815260200160002060006101000a81548160ff0219169083151502179055505b7f0f5bb82176feb1b5e747e28471aa92156a04d9f3ab9f45f28e2d704232b93f7533826040516105469291906111bc565b60405180910390a150565b60046020528060005260406000206000915090505481565b600080600080600080600260009054906101000a900473ffffffffffffffffffffffffffffffffffffffff1673ffffffffffffffffffffffffffffffffffffffff1663feaf968c6040518163ffffffff167c010000000000000000000000000000000000000000000000000000000002815260040160a06040518083038186803b1580156105f657600080fd5b505afa15801561060a573d6000803e3d6000fd5b505050506040513d601f19601f8201168201806040525081019061062e91906112c1565b94509450945094509450839550505050505090565b60056020528060005260406000206000915054906101000a900460ff1681565b600080600460003373ffffffffffffffffffffffffffffffffffffffff1673ffffffffffffffffffffffffffffffffffffffff1681526020019081526020016000205414156106b55760009050610797565b60006106bf610569565b905060006001600660003373ffffffffffffffffffffffffffffffffffffffff1673ffffffffffffffffffffffffffffffffffffffff1681526020019081526020016000205442610710919061136b565b61071a91906113ce565b9050806103e8670de0b6b3a764000084600460003373ffffffffffffffffffffffffffffffffffffffff1673ffffffffffffffffffffffffffffffffffffffff1681526020019081526020016000205461077491906113ff565b61077e91906113ce565b61078891906113ce565b61079291906113ff565b925050505b90565b60066020528060005260406000206000915090505481565b600081116107f5576040517f08c379a00000000000000000000000000000000000000000000000000000000081526004016107ec906114a5565b60405180910390fd5b60008054906101000a900473ffffffffffffffffffffffffffffffffffffffff1673ffffffffffffffffffffffffffffffffffffffff166323b872dd3330846040518463ffffffff167c010000000000000000000000000000000000000000000000000000000002815260040161086e939291906114c5565b602060405180830381600087803b15801561088857600080fd5b505af115801561089c573d6000803e3d6000fd5b505050506040513d601f19601f820116820180604052508101906108c09190611211565b50600560003373ffffffffffffffffffffffffffffffffffffffff1673ffffffffffffffffffffffffffffffffffffffff16815260200190815260200160002060009054906101000a900460ff161561091c5761091b610b88565b5b61096e81600460003373ffffffffffffffffffffffffffffffffffffffff1673ffffffffffffffffffffffffffffffffffffffff16815260200190815260200160002054610e7190919063ffffffff16565b600460003373ffffffffffffffffffffffffffffffffffffffff1673ffffffffffffffffffffffffffffffffffffffff16815260200190815260200160002081905550600560003373ffffffffffffffffffffffffffffffffffffffff1673ffffffffffffffffffffffffffffffffffffffff16815260200190815260200160002060009054906101000a900460ff16610b02576001600560003373ffffffffffffffffffffffffffffffffffffffff1673ffffffffffffffffffffffffffffffffffffffff16815260200190815260200160002060006101000a81548160ff02191690831515021790555042600660003373ffffffffffffffffffffffffffffffffffffffff1673ffffffffffffffffffffffffffffffffffffffff168152602001908152602001600020819055506003339080600181540180825580915050600190039060005260206000200160009091909190916101000a81548173ffffffffffffffffffffffffffffffffffffffff021916908373ffffffffffffffffffffffffffffffffffffffff1602179055505b7f9e71bc8eea02a63969f509818f2dafb9254532904319f9dbda79b67bd34a5f3d3382604051610b339291906111bc565b60405180910390a150565b600160009054906101000a900473ffffffffffffffffffffffffffffffffffffffff1681565b60008054906101000a900473ffffffffffffffffffffffffffffffffffffffff1681565b6000610b92610663565b905060008111610bd7576040517f08c379a0000000000000000000000000000000000000000000000000000000008152600401610bce90611548565b60405180910390fd5b6001600660003373ffffffffffffffffffffffffffffffffffffffff1673ffffffffffffffffffffffffffffffffffffffff1681526020019081526020016000205442610c24919061136b565b11610c64576040517f08c379a0000000000000000000000000000000000000000000000000000000008152600401610c5b906115da565b60405180910390fd5b42600660003373ffffffffffffffffffffffffffffffffffffffff1673ffffffffffffffffffffffffffffffffffffffff16815260200190815260200160002081905550600160009054906101000a900473ffffffffffffffffffffffffffffffffffffffff1673ffffffffffffffffffffffffffffffffffffffff166340c10f1930836040518363ffffffff167c0100000000000000000000000000000000000000000000000000000000028152600401610d219291906111bc565b600060405180830381600087803b158015610d3b57600080fd5b505af1158015610d4f573d6000803e3d6000fd5b50505050600160009054906101000a900473ffffffffffffffffffffffffffffffffffffffff1673ffffffffffffffffffffffffffffffffffffffff1663a9059cbb33836040518363ffffffff167c0100000000000000000000000000000000000000000000000000000000028152600401610dcc9291906111bc565b602060405180830381600087803b158015610de657600080fd5b505af1158015610dfa573d6000803e3d6000fd5b505050506040513d601f19601f82011682018060405250810190610e1e9190611211565b507ff9b6ec770c96c3a6f9225bf3a8463a8ad03e884448af07b4ecd4d19d628946ee3382604051610e509291906111bc565b60405180910390a150565b60008183610e69919061136b565b905092915050565b60008183610e7f91906115fa565b905092915050565b600080fd5b6000819050919050565b610e9f81610e8c565b8114610eaa57600080fd5b50565b600081359050610ebc81610e96565b92915050565b600060208284031215610ed857610ed7610e87565b5b6000610ee684828501610ead565b91505092915050565b600073ffffffffffffffffffffffffffffffffffffffff82169050919050565b6000610f1a82610eef565b9050919050565b610f2a81610f0f565b8114610f3557600080fd5b50565b600081359050610f4781610f21565b92915050565b600060208284031215610f6357610f62610e87565b5b6000610f7184828501610f38565b91505092915050565b610f8381610e8c565b82525050565b6000602082019050610f9e6000830184610f7a565b92915050565b6000819050919050565b610fb781610fa4565b82525050565b6000602082019050610fd26000830184610fae565b92915050565b60008115159050919050565b610fed81610fd8565b82525050565b60006020820190506110086000830184610fe4565b92915050565b6000819050919050565b600061103361102e61102984610eef565b61100e565b610eef565b9050919050565b600061104582611018565b9050919050565b60006110578261103a565b9050919050565b6110678161104c565b82525050565b6000602082019050611082600083018461105e565b92915050565b60006110938261103a565b9050919050565b6110a381611088565b82525050565b60006020820190506110be600083018461109a565b92915050565b600082825260208201905092915050565b7f596f7520646f6e2774206f776e20746f6b656e207374616b6564000000000000600082015250565b600061110b601a836110c4565b9150611116826110d5565b602082019050919050565b6000602082019050818103600083015261113a816110fe565b9050919050565b7f496e73756666696369656e74207374616b656420616d6f756e74000000000000600082015250565b6000611177601a836110c4565b915061118282611141565b602082019050919050565b600060208201905081810360008301526111a68161116a565b9050919050565b6111b681610f0f565b82525050565b60006040820190506111d160008301856111ad565b6111de6020830184610f7a565b9392505050565b6111ee81610fd8565b81146111f957600080fd5b50565b60008151905061120b816111e5565b92915050565b60006020828403121561122757611226610e87565b5b6000611235848285016111fc565b91505092915050565b600069ffffffffffffffffffff82169050919050565b61125d8161123e565b811461126857600080fd5b50565b60008151905061127a81611254565b92915050565b61128981610fa4565b811461129457600080fd5b50565b6000815190506112a681611280565b92915050565b6000815190506112bb81610e96565b92915050565b600080600080600060a086880312156112dd576112dc610e87565b5b60006112eb8882890161126b565b95505060206112fc88828901611297565b945050604061130d888289016112ac565b935050606061131e888289016112ac565b925050608061132f8882890161126b565b9150509295509295909350565b7f4e487b7100000000000000000000000000000000000000000000000000000000600052601160045260246000fd5b600061137682610e8c565b915061138183610e8c565b9250828210156113945761139361133c565b5b828203905092915050565b7f4e487b7100000000000000000000000000000000000000000000000000000000600052601260045260246000fd5b60006113d982610e8c565b91506113e483610e8c565b9250826113f4576113f361139f565b5b828204905092915050565b600061140a82610e8c565b915061141583610e8c565b9250817fffffffffffffffffffffffffffffffffffffffffffffffffffffffffffffffff048311821515161561144e5761144d61133c565b5b828202905092915050565b7f54686520616d6f756e74206d75737420626520706f7369746976650000000000600082015250565b600061148f601b836110c4565b915061149a82611459565b602082019050919050565b600060208201905081810360008301526114be81611482565b9050919050565b60006060820190506114da60008301866111ad565b6114e760208301856111ad565b6114f46040830184610f7a565b949350505050565b7f4e6f2052657761726420617661696c61626c6520210000000000000000000000600082015250565b60006115326015836110c4565b915061153d826114fc565b602082019050919050565b6000602082019050818103600083015261156181611525565b9050919050565b7f57616974206174206c656173742031207365636f6e6420746f20636c61696d2060008201527f616761696e207265776172647300000000000000000000000000000000000000602082015250565b60006115c4602d836110c4565b91506115cf82611568565b604082019050919050565b600060208201905081810360008301526115f3816115b7565b9050919050565b600061160582610e8c565b915061161083610e8c565b9250827fffffffffffffffffffffffffffffffffffffffffffffffffffffffffffffffff038211156116455761164461133c565b5b82820190509291505056fea26469706673582212202b0806403ed54197ee81d3c7575c68f582262c3de5a009ab42910885320af07764736f6c63430008090033",
  "immutableReferences": {},
  "source": "// SPDX-License-Identifier: MIT\r\npragma solidity 0.8.9;\r\nimport \"@openzeppelin/contracts/token/ERC20/IERC20.sol\";\r\nimport \"@openzeppelin/contracts/utils/math/SafeMath.sol\";\r\nimport \"@chainlink/contracts/src/v0.8/interfaces/AggregatorV3Interface.sol\";\r\n\r\nimport \"./Bibscoin.sol\";\r\nimport \"./Dai.sol\";\r\n\r\ncontract BibsStaking {\r\n    using SafeMath for uint256;\r\n    Dai public dai;\r\n    Bibscoin public bibscoin;\r\n\r\n    AggregatorV3Interface internal priceFeed;\r\n\r\n    address[] stakers;\r\n    mapping(address => uint256) public stakingBalance;\r\n    // INFOS IMPORTANTES ???\r\n    mapping(address => bool) public isStaking;\r\n    mapping(address => uint256) public timestamp; \r\n\r\n    // Crer un struct comme voting ?\r\n    event Staked(address user, uint256 amount);\r\n    event Unstaked(address user, uint256 amount);\r\n    event RewardIssued(address user, uint256 amount);\r\n\r\n    /**\r\n     * Network: Kovan\r\n     * Aggregator: DAI/ETH\r\n     * Address: 0x22B58f1EbEDfCA50feF632bD73368b2FdA96D541\r\n     */\r\n    constructor(Dai _daiAddress, Bibscoin _bibscoinAddress, address _address) {\r\n        // Injecter l'address du token Bibscoin et Dai  utiliser\r\n        dai = _daiAddress;\r\n        bibscoin = _bibscoinAddress;\r\n        priceFeed = AggregatorV3Interface(_address);\r\n    }\r\n\r\n    // stake tokens\r\n    function stake(uint256 _amount) external {\r\n        require(_amount > 0, \"The amount must be positive\");\r\n        dai.transferFrom(msg.sender, address(this), _amount);\r\n        if (isStaking[msg.sender]) {\r\n            issueReward();\r\n        }\r\n        stakingBalance[msg.sender] = stakingBalance[msg.sender].add(_amount);\r\n        if (!isStaking[msg.sender]) {\r\n            isStaking[msg.sender] = true;\r\n            timestamp[msg.sender] = block.timestamp;\r\n            stakers.push(msg.sender);\r\n        }\r\n        emit Staked(msg.sender, _amount);\r\n    }\r\n\r\n    function calculateReward() public view returns (uint256) {\r\n        if (stakingBalance[msg.sender] == 0) {\r\n            return 0;\r\n        }\r\n        uint256 daiEthPrice = uint256(getDaiEthPrice());\r\n        uint256 stakingPeriod = (block.timestamp - timestamp[msg.sender]) / (1 seconds);\r\n        return (((stakingBalance[msg.sender] * daiEthPrice) / 1e18) / 1000) * stakingPeriod;\r\n    }\r\n\r\n    function getDaiEthPrice() public view returns (int) {\r\n        (\r\n            uint80 roundID, \r\n            int price,\r\n            uint startedAt,\r\n            uint timeStamp,\r\n            uint80 answeredInRound\r\n        ) = priceFeed.latestRoundData();\r\n        return price;\r\n    }\r\n\r\n    // Issuing tokens\r\n    function issueReward() internal {\r\n        uint256 reward = calculateReward();\r\n        require(reward > 0, \"No Reward available !\");\r\n        require((block.timestamp - timestamp[msg.sender]) > 1 seconds, \"Wait at least 1 second to claim again rewards\");\r\n\r\n        timestamp[msg.sender] = block.timestamp;\r\n        bibscoin.mint(address(this), reward);\r\n        bibscoin.transfer(msg.sender, reward);\r\n        emit RewardIssued(msg.sender, reward);\r\n    }\r\n\r\n    // unstake tokens, if unstake is executed with 0 as amount, it withdraw only the reward.\r\n    function unstake(uint256 _amount) external {\r\n        require(isStaking[msg.sender], \"You don't own token staked\");\r\n        require(_amount <= stakingBalance[msg.sender], \"Insufficient staked amount\");\r\n\r\n        issueReward();\r\n\r\n        if (_amount > 0) {\r\n            stakingBalance[msg.sender] = stakingBalance[msg.sender].sub(_amount);\r\n            dai.transfer(msg.sender, _amount);\r\n        }\r\n        if (stakingBalance[msg.sender] == 0) {\r\n            isStaking[msg.sender] = false;\r\n        }\r\n\r\n        emit Unstaked(msg.sender, _amount);\r\n    }\r\n}\r\n",
  "sourcePath": "D:\\TAF\\Alyra\\Cours\\DApp\\StakingDAPP\\contracts\\BibsStaking.sol",
  "compiler": {
    "name": "solc",
    "version": "0.8.9+commit.e5eed63a.Emscripten.clang"
  },
  "schemaVersion": "3.4.3",
  "updatedAt": "2021-10-04T13:52:10.691Z",
  "networkType": "ethereum",
  "devdoc": {
    "kind": "dev",
    "methods": {},
    "version": 1
  },
  "userdoc": {
    "kind": "user",
    "methods": {
      "constructor": {
        "notice": "Network: Kovan Aggregator: DAI/ETH Address: 0x22B58f1EbEDfCA50feF632bD73368b2FdA96D541"
      }
    },
    "version": 1
  }
}