{
  "contractName": "ChainlinkDaiTests",
  "abi": [
    {
      "inputs": [],
      "stateMutability": "nonpayable",
      "type": "constructor"
    },
    {
      "anonymous": false,
      "inputs": [
        {
          "indexed": true,
          "internalType": "address",
          "name": "previousOwner",
          "type": "address"
        },
        {
          "indexed": true,
          "internalType": "address",
          "name": "newOwner",
          "type": "address"
        }
      ],
      "name": "OwnershipTransferred",
      "type": "event"
    },
    {
      "inputs": [],
      "name": "owner",
      "outputs": [
        {
          "internalType": "address",
          "name": "",
          "type": "address"
        }
      ],
      "stateMutability": "view",
      "type": "function"
    },
    {
      "inputs": [],
      "name": "renounceOwnership",
      "outputs": [],
      "stateMutability": "nonpayable",
      "type": "function"
    },
    {
      "inputs": [
        {
          "internalType": "address",
          "name": "newOwner",
          "type": "address"
        }
      ],
      "name": "transferOwnership",
      "outputs": [],
      "stateMutability": "nonpayable",
      "type": "function"
    },
    {
      "inputs": [],
      "name": "decimals",
      "outputs": [
        {
          "internalType": "uint8",
          "name": "",
          "type": "uint8"
        }
      ],
      "stateMutability": "pure",
      "type": "function"
    },
    {
      "inputs": [],
      "name": "description",
      "outputs": [
        {
          "internalType": "string",
          "name": "",
          "type": "string"
        }
      ],
      "stateMutability": "pure",
      "type": "function"
    },
    {
      "inputs": [],
      "name": "version",
      "outputs": [
        {
          "internalType": "uint256",
          "name": "",
          "type": "uint256"
        }
      ],
      "stateMutability": "pure",
      "type": "function"
    },
    {
      "inputs": [
        {
          "internalType": "uint80",
          "name": "_roundId",
          "type": "uint80"
        }
      ],
      "name": "getRoundData",
      "outputs": [
        {
          "internalType": "uint80",
          "name": "roundId",
          "type": "uint80"
        },
        {
          "internalType": "int256",
          "name": "answer",
          "type": "int256"
        },
        {
          "internalType": "uint256",
          "name": "startedAt",
          "type": "uint256"
        },
        {
          "internalType": "uint256",
          "name": "updatedAt",
          "type": "uint256"
        },
        {
          "internalType": "uint80",
          "name": "answeredInRound",
          "type": "uint80"
        }
      ],
      "stateMutability": "pure",
      "type": "function"
    },
    {
      "inputs": [],
      "name": "latestRoundData",
      "outputs": [
        {
          "internalType": "uint80",
          "name": "roundId",
          "type": "uint80"
        },
        {
          "internalType": "int256",
          "name": "answer",
          "type": "int256"
        },
        {
          "internalType": "uint256",
          "name": "startedAt",
          "type": "uint256"
        },
        {
          "internalType": "uint256",
          "name": "updatedAt",
          "type": "uint256"
        },
        {
          "internalType": "uint80",
          "name": "answeredInRound",
          "type": "uint80"
        }
      ],
      "stateMutability": "pure",
      "type": "function"
    }
  ],
  "bytecode": "0x608060405234801561001057600080fd5b5061003f61002b610044640100000000026401000000009004565b61004c640100000000026401000000009004565b610110565b600033905090565b60008060009054906101000a900473ffffffffffffffffffffffffffffffffffffffff169050816000806101000a81548173ffffffffffffffffffffffffffffffffffffffff021916908373ffffffffffffffffffffffffffffffffffffffff1602179055508173ffffffffffffffffffffffffffffffffffffffff168173ffffffffffffffffffffffffffffffffffffffff167f8be0079c531659141344cd1fd0a4f28419497f9722a3daafe3b4186f6b6457e060405160405180910390a35050565b6108ae8061011f6000396000f3fe608060405234801561001057600080fd5b50600436106100a5576000357c0100000000000000000000000000000000000000000000000000000000900480638da5cb5b116100785780638da5cb5b1461010e5780639a6fc8f51461012c578063f2fde38b14610160578063feaf968c1461017c576100a5565b8063313ce567146100aa57806354fd4d50146100c8578063715018a6146100e65780637284e416146100f0575b600080fd5b6100b261019e565b6040516100bf91906104cc565b60405180910390f35b6100d06101a7565b6040516100dd9190610500565b60405180910390f35b6100ee6101b0565b005b6100f8610238565b60405161010591906105b4565b60405180910390f35b610116610275565b6040516101239190610617565b60405180910390f35b61014660048036038101906101419190610679565b61029e565b6040516101579594939291906106ce565b60405180910390f35b61017a6004803603810190610175919061074d565b6102c6565b005b6101846103be565b6040516101959594939291906106ce565b60405180910390f35b60006008905090565b60006001905090565b6101b86103e4565b73ffffffffffffffffffffffffffffffffffffffff166101d6610275565b73ffffffffffffffffffffffffffffffffffffffff161461022c576040517f08c379a0000000000000000000000000000000000000000000000000000000008152600401610223906107c6565b60405180910390fd5b61023660006103ec565b565b60606040518060400160405280601181526020017f436861696e6c696e6b4461695465737473000000000000000000000000000000815250905090565b60008060009054906101000a900473ffffffffffffffffffffffffffffffffffffffff16905090565b600080600080600085655af3107a400060018060019450945094509450945091939590929450565b6102ce6103e4565b73ffffffffffffffffffffffffffffffffffffffff166102ec610275565b73ffffffffffffffffffffffffffffffffffffffff1614610342576040517f08c379a0000000000000000000000000000000000000000000000000000000008152600401610339906107c6565b60405180910390fd5b600073ffffffffffffffffffffffffffffffffffffffff168173ffffffffffffffffffffffffffffffffffffffff1614156103b2576040517f08c379a00000000000000000000000000000000000000000000000000000000081526004016103a990610858565b60405180910390fd5b6103bb816103ec565b50565b600080600080600080655af3107a40006001806001945094509450945094509091929394565b600033905090565b60008060009054906101000a900473ffffffffffffffffffffffffffffffffffffffff169050816000806101000a81548173ffffffffffffffffffffffffffffffffffffffff021916908373ffffffffffffffffffffffffffffffffffffffff1602179055508173ffffffffffffffffffffffffffffffffffffffff168173ffffffffffffffffffffffffffffffffffffffff167f8be0079c531659141344cd1fd0a4f28419497f9722a3daafe3b4186f6b6457e060405160405180910390a35050565b600060ff82169050919050565b6104c6816104b0565b82525050565b60006020820190506104e160008301846104bd565b92915050565b6000819050919050565b6104fa816104e7565b82525050565b600060208201905061051560008301846104f1565b92915050565b600081519050919050565b600082825260208201905092915050565b60005b8381101561055557808201518184015260208101905061053a565b83811115610564576000848401525b50505050565b6000601f19601f8301169050919050565b60006105868261051b565b6105908185610526565b93506105a0818560208601610537565b6105a98161056a565b840191505092915050565b600060208201905081810360008301526105ce818461057b565b905092915050565b600073ffffffffffffffffffffffffffffffffffffffff82169050919050565b6000610601826105d6565b9050919050565b610611816105f6565b82525050565b600060208201905061062c6000830184610608565b92915050565b600080fd5b600069ffffffffffffffffffff82169050919050565b61065681610637565b811461066157600080fd5b50565b6000813590506106738161064d565b92915050565b60006020828403121561068f5761068e610632565b5b600061069d84828501610664565b91505092915050565b6106af81610637565b82525050565b6000819050919050565b6106c8816106b5565b82525050565b600060a0820190506106e360008301886106a6565b6106f060208301876106bf565b6106fd60408301866104f1565b61070a60608301856104f1565b61071760808301846106a6565b9695505050505050565b61072a816105f6565b811461073557600080fd5b50565b60008135905061074781610721565b92915050565b60006020828403121561076357610762610632565b5b600061077184828501610738565b91505092915050565b7f4f776e61626c653a2063616c6c6572206973206e6f7420746865206f776e6572600082015250565b60006107b0602083610526565b91506107bb8261077a565b602082019050919050565b600060208201905081810360008301526107df816107a3565b9050919050565b7f4f776e61626c653a206e6577206f776e657220697320746865207a65726f206160008201527f6464726573730000000000000000000000000000000000000000000000000000602082015250565b6000610842602683610526565b915061084d826107e6565b604082019050919050565b6000602082019050818103600083015261087181610835565b905091905056fea264697066735822122075eab6d596ea7f8dad954f6faaab85d6fa25e9fbb6e3ad0d1200b83ebc88281364736f6c63430008090033",
  "immutableReferences": {},
  "source": "// SPDX-License-Identifier: MIT\r\npragma solidity 0.8.9;\r\n\r\nimport '@openzeppelin/contracts/access/Ownable.sol';\r\nimport '@openzeppelin/contracts/token/ERC20/IERC20.sol';\r\nimport '@chainlink/contracts/src/v0.8/interfaces/AggregatorV3Interface.sol';\r\n\r\ncontract ChainlinkDaiTests is AggregatorV3Interface, Ownable {\r\n\r\n    constructor() {}\r\n\r\n    function decimals() override external pure returns (uint8) {\r\n        return 8;\r\n    }\r\n\r\n    function description() override external pure returns (string memory) {\r\n        return \"ChainlinkDaiTests\";\r\n    }\r\n\r\n    function version() override external pure returns (uint256) {\r\n        return 1;\r\n    }\r\n\r\n  \r\n    function getRoundData(uint80 _roundId) override external pure returns (uint80 roundId, int256 answer, uint256 startedAt, uint256 updatedAt, uint80 answeredInRound) {\r\n        // return (_roundId, value * 10 ** 8, 1, 1, 1);\r\n        return (_roundId, 10**14, 1, 1, 1);\r\n    }\r\n\r\n    function latestRoundData() override external pure returns (uint80 roundId, int256 answer, uint256 startedAt, uint256 updatedAt, uint80 answeredInRound) {\r\n        // return (0, value * 10 ** 8, 1, 1, 1);\r\n        return (0, 10**14, 1, 1, 1);\r\n    }\r\n}",
  "sourcePath": "D:\\TAF\\Alyra\\Cours\\DApp\\StakingDAPP\\contracts\\ChainlinkDaiTests.sol",
  "compiler": {
    "name": "solc",
    "version": "0.8.9+commit.e5eed63a.Emscripten.clang"
  },
  "schemaVersion": "3.4.3",
  "updatedAt": "2021-10-03T14:55:20.898Z",
  "devdoc": {
    "kind": "dev",
    "methods": {
      "owner()": {
        "details": "Returns the address of the current owner."
      },
      "renounceOwnership()": {
        "details": "Leaves the contract without owner. It will not be possible to call `onlyOwner` functions anymore. Can only be called by the current owner. NOTE: Renouncing ownership will leave the contract without an owner, thereby removing any functionality that is only available to the owner."
      },
      "transferOwnership(address)": {
        "details": "Transfers ownership of the contract to a new account (`newOwner`). Can only be called by the current owner."
      }
    },
    "version": 1
  },
  "userdoc": {
    "kind": "user",
    "methods": {},
    "version": 1
  }
}